20190524-14:13:58.000000000 : 8=FIX.4.4|9=81|35=A|34=1|49=ORP_RESZ_B|52=20190524-14:13:58.000|56=BLPORPBETA|98=0|108=60|141=Y|10=076|
20190524-14:14:08.000000000 : 8=FIX.4.4|9=81|35=A|34=1|49=ORP_RESZ_B|52=20190524-14:14:08.000|56=BLPORPBETA|98=0|108=60|141=Y|10=072|
20190524-14:14:18.000000000 : 8=FIX.4.4|9=81|35=A|34=1|49=ORP_RESZ_B|52=20190524-14:14:18.000|56=BLPORPBETA|98=0|108=60|141=Y|10=073|
20190524-14:14:28.000000000 : 8=FIX.4.4|9=81|35=A|34=1|49=ORP_RESZ_B|52=20190524-14:14:28.000|56=BLPORPBETA|98=0|108=60|141=Y|10=074|
20190524-14:14:38.000000000 : 8=FIX.4.4|9=81|35=A|34=1|49=ORP_RESZ_B|52=20190524-14:14:38.000|56=BLPORPBETA|98=0|108=60|141=Y|10=075|
20190524-14:14:48.000000000 : 8=FIX.4.4|9=81|35=A|34=1|49=ORP_RESZ_B|52=20190524-14:14:48.000|56=BLPORPBETA|98=0|108=60|141=Y|10=076|
20190524-14:14:58.000000000 : 8=FIX.4.4|9=81|35=A|34=1|49=ORP_RESZ_B|52=20190524-14:14:58.000|56=BLPORPBETA|98=0|108=60|141=Y|10=077|
20190524-14:15:08.000000000 : 8=FIX.4.4|9=81|35=A|34=1|49=ORP_RESZ_B|52=20190524-14:15:08.000|56=BLPORPBETA|98=0|108=60|141=Y|10=073|
20190524-14:15:18.000000000 : 8=FIX.4.4|9=81|35=A|34=1|49=ORP_RESZ_B|52=20190524-14:15:18.000|56=BLPORPBETA|98=0|108=60|141=Y|10=074|
20190524-14:16:41.000000000 : 8=FIX.4.4|9=81|35=A|34=1|49=ORP_RESZ_B|52=20190524-14:16:41.000|56=BLPORPBETA|98=0|108=60|141=Y|10=071|
20190524-14:16:51.000000000 : 8=FIX.4.4|9=81|35=A|34=1|49=ORP_RESZ_B|52=20190524-14:16:51.000|56=BLPORPBETA|98=0|108=60|141=Y|10=072|
20190524-14:17:01.000000000 : 8=FIX.4.4|9=81|35=A|34=1|49=ORP_RESZ_B|52=20190524-14:17:01.000|56=BLPORPBETA|98=0|108=60|141=Y|10=068|
20190603-09:32:33.000000000 : 8=FIX.4.4|9=81|35=A|34=1|49=ORP_RESZ_B|52=20190603-09:32:33.000|56=BLPORPBETA|98=0|108=60|141=Y|10=072|
20190603-14:35:23.000000000 : 8=FIX.4.4|9=81|35=A|34=1|49=ORP_RESZ_B|52=20190603-14:35:23.000|56=BLPORPBETA|98=0|108=60|141=Y|10=070|
20190603-14:35:34.000000000 : 8=FIX.4.4|9=81|35=A|34=1|49=ORP_RESZ_B|52=20190603-14:35:34.000|56=BLPORPBETA|98=0|108=60|141=Y|10=072|
20190603-14:35:44.000000000 : 8=FIX.4.4|9=81|35=A|34=1|49=ORP_RESZ_B|52=20190603-14:35:44.000|56=BLPORPBETA|98=0|108=60|141=Y|10=073|
20190603-14:35:54.000000000 : 8=FIX.4.4|9=81|35=A|34=1|49=ORP_RESZ_B|52=20190603-14:35:54.000|56=BLPORPBETA|98=0|108=60|141=Y|10=074|
20190603-14:36:04.000000000 : 8=FIX.4.4|9=81|35=A|34=1|49=ORP_RESZ_B|52=20190603-14:36:04.000|56=BLPORPBETA|98=0|108=60|141=Y|10=070|
20190603-14:36:14.000000000 : 8=FIX.4.4|9=81|35=A|34=1|49=ORP_RESZ_B|52=20190603-14:36:14.000|56=BLPORPBETA|98=0|108=60|141=Y|10=071|
20190603-14:36:24.000000000 : 8=FIX.4.4|9=81|35=A|34=1|49=ORP_RESZ_B|52=20190603-14:36:24.000|56=BLPORPBETA|98=0|108=60|141=Y|10=072|
20190603-14:36:34.000000000 : 8=FIX.4.4|9=81|35=A|34=1|49=ORP_RESZ_B|52=20190603-14:36:34.000|56=BLPORPBETA|98=0|108=60|141=Y|10=073|
20190603-14:36:44.000000000 : 8=FIX.4.4|9=81|35=A|34=1|49=ORP_RESZ_B|52=20190603-14:36:44.000|56=BLPORPBETA|98=0|108=60|141=Y|10=074|
20190603-14:36:54.000000000 : 8=FIX.4.4|9=81|35=A|34=1|49=ORP_RESZ_B|52=20190603-14:36:54.000|56=BLPORPBETA|98=0|108=60|141=Y|10=075|
20190603-14:37:04.000000000 : 8=FIX.4.4|9=81|35=A|34=1|49=ORP_RESZ_B|52=20190603-14:37:04.000|56=BLPORPBETA|98=0|108=60|141=Y|10=071|
20190603-14:37:14.000000000 : 8=FIX.4.4|9=81|35=A|34=1|49=ORP_RESZ_B|52=20190603-14:37:14.000|56=BLPORPBETA|98=0|108=60|141=Y|10=072|
20190603-14:37:24.000000000 : 8=FIX.4.4|9=81|35=A|34=1|49=ORP_RESZ_B|52=20190603-14:37:24.000|56=BLPORPBETA|98=0|108=60|141=Y|10=073|
20190603-14:37:34.000000000 : 8=FIX.4.4|9=81|35=A|34=1|49=ORP_RESZ_B|52=20190603-14:37:34.000|56=BLPORPBETA|98=0|108=60|141=Y|10=074|
20190603-14:37:44.000000000 : 8=FIX.4.4|9=81|35=A|34=1|49=ORP_RESZ_B|52=20190603-14:37:44.000|56=BLPORPBETA|98=0|108=60|141=Y|10=075|
20190603-14:37:54.000000000 : 8=FIX.4.4|9=81|35=A|34=1|49=ORP_RESZ_B|52=20190603-14:37:54.000|56=BLPORPBETA|98=0|108=60|141=Y|10=076|
20190603-14:38:04.000000000 : 8=FIX.4.4|9=81|35=A|34=1|49=ORP_RESZ_B|52=20190603-14:38:04.000|56=BLPORPBETA|98=0|108=60|141=Y|10=072|
20190603-14:38:14.000000000 : 8=FIX.4.4|9=81|35=A|34=1|49=ORP_RESZ_B|52=20190603-14:38:14.000|56=BLPORPBETA|98=0|108=60|141=Y|10=073|
20190603-14:38:24.000000000 : 8=FIX.4.4|9=81|35=A|34=1|49=ORP_RESZ_B|52=20190603-14:38:24.000|56=BLPORPBETA|98=0|108=60|141=Y|10=074|
20190603-14:38:34.000000000 : 8=FIX.4.4|9=81|35=A|34=1|49=ORP_RESZ_B|52=20190603-14:38:34.000|56=BLPORPBETA|98=0|108=60|141=Y|10=075|
20190603-14:38:44.000000000 : 8=FIX.4.4|9=81|35=A|34=1|49=ORP_RESZ_B|52=20190603-14:38:44.000|56=BLPORPBETA|98=0|108=60|141=Y|10=076|
20190603-14:38:55.000000000 : 8=FIX.4.4|9=81|35=A|34=1|49=ORP_RESZ_B|52=20190603-14:38:55.000|56=BLPORPBETA|98=0|108=60|141=Y|10=078|
20190603-14:40:22.000000000 : 8=FIX.4.4|9=81|35=A|34=1|49=ORP_RESZ_B|52=20190603-14:40:22.000|56=BLPORPBETA|98=0|108=60|141=Y|10=065|
20190603-14:48:50.000000000 : 8=FIX.4.4|9=81|35=A|34=1|49=ORP_RESZ_B|52=20190603-14:48:50.000|56=BLPORPBETA|98=0|108=60|141=Y|10=074|
20190603-14:49:46.000000000 : 8=FIX.4.4|9=81|35=A|34=1|49=ORP_RESZ_B|52=20190603-14:49:46.000|56=BLPORPBETA|98=0|108=60|141=Y|10=080|
20190603-14:49:56.000000000 : 8=FIX.4.4|9=81|35=A|34=1|49=ORP_RESZ_B|52=20190603-14:49:56.000|56=BLPORPBETA|98=0|108=60|141=Y|10=081|
20190603-14:56:01.000000000 : 8=FIX.4.4|9=81|35=A|34=1|49=ORP_RESZ_B|52=20190603-14:56:01.000|56=BLPORPBETA|98=0|108=60|141=Y|10=069|
20190603-14:56:11.000000000 : 8=FIX.4.4|9=81|35=A|34=1|49=ORP_RESZ_B|52=20190603-14:56:11.000|56=BLPORPBETA|98=0|108=60|141=Y|10=070|
20190603-14:56:21.000000000 : 8=FIX.4.4|9=81|35=A|34=1|49=ORP_RESZ_B|52=20190603-14:56:21.000|56=BLPORPBETA|98=0|108=60|141=Y|10=071|
20190603-14:56:31.000000000 : 8=FIX.4.4|9=81|35=A|34=1|49=ORP_RESZ_B|52=20190603-14:56:31.000|56=BLPORPBETA|98=0|108=60|141=Y|10=072|
20190603-14:56:41.000000000 : 8=FIX.4.4|9=81|35=A|34=1|49=ORP_RESZ_B|52=20190603-14:56:41.000|56=BLPORPBETA|98=0|108=60|141=Y|10=073|
20190603-14:56:51.000000000 : 8=FIX.4.4|9=81|35=A|34=1|49=ORP_RESZ_B|52=20190603-14:56:51.000|56=BLPORPBETA|98=0|108=60|141=Y|10=074|
20190603-14:57:01.000000000 : 8=FIX.4.4|9=81|35=A|34=1|49=ORP_RESZ_B|52=20190603-14:57:01.000|56=BLPORPBETA|98=0|108=60|141=Y|10=070|
20190603-14:57:11.000000000 : 8=FIX.4.4|9=81|35=A|34=1|49=ORP_RESZ_B|52=20190603-14:57:11.000|56=BLPORPBETA|98=0|108=60|141=Y|10=071|
20190603-14:57:21.000000000 : 8=FIX.4.4|9=81|35=A|34=1|49=ORP_RESZ_B|52=20190603-14:57:21.000|56=BLPORPBETA|98=0|108=60|141=Y|10=072|
20190603-14:57:31.000000000 : 8=FIX.4.4|9=81|35=A|34=1|49=ORP_RESZ_B|52=20190603-14:57:31.000|56=BLPORPBETA|98=0|108=60|141=Y|10=073|
20190603-14:57:41.000000000 : 8=FIX.4.4|9=81|35=A|34=1|49=ORP_RESZ_B|52=20190603-14:57:41.000|56=BLPORPBETA|98=0|108=60|141=Y|10=074|
20190603-14:57:51.000000000 : 8=FIX.4.4|9=81|35=A|34=1|49=ORP_RESZ_B|52=20190603-14:57:51.000|56=BLPORPBETA|98=0|108=60|141=Y|10=075|
20190603-14:58:01.000000000 : 8=FIX.4.4|9=81|35=A|34=1|49=ORP_RESZ_B|52=20190603-14:58:01.000|56=BLPORPBETA|98=0|108=60|141=Y|10=071|
20190603-14:58:11.000000000 : 8=FIX.4.4|9=81|35=A|34=1|49=ORP_RESZ_B|52=20190603-14:58:11.000|56=BLPORPBETA|98=0|108=60|141=Y|10=072|
20190603-14:58:21.000000000 : 8=FIX.4.4|9=81|35=A|34=1|49=ORP_RESZ_B|52=20190603-14:58:21.000|56=BLPORPBETA|98=0|108=60|141=Y|10=073|
20190603-14:58:31.000000000 : 8=FIX.4.4|9=81|35=A|34=1|49=ORP_RESZ_B|52=20190603-14:58:31.000|56=BLPORPBETA|98=0|108=60|141=Y|10=074|
20190603-14:58:41.000000000 : 8=FIX.4.4|9=81|35=A|34=1|49=ORP_RESZ_B|52=20190603-14:58:41.000|56=BLPORPBETA|98=0|108=60|141=Y|10=075|
20190603-14:58:51.000000000 : 8=FIX.4.4|9=81|35=A|34=1|49=ORP_RESZ_B|52=20190603-14:58:51.000|56=BLPORPBETA|98=0|108=60|141=Y|10=076|
20190603-14:59:01.000000000 : 8=FIX.4.4|9=81|35=A|34=1|49=ORP_RESZ_B|52=20190603-14:59:01.000|56=BLPORPBETA|98=0|108=60|141=Y|10=072|
20190606-12:18:55.000000000 : 8=FIX.4.4|9=81|35=A|34=1|49=ORP_RESZ_B|52=20190606-12:18:55.000|56=BLPORPBETA|98=0|108=60|141=Y|10=077|
20190606-12:18:55.000000000 : 8=FIX.4.4|9=0084|35=A|49=BLPORPBETA|56=ORP_RESZ_B|34=1|52=20190606-12:18:55.849451|98=0|108=60|141=Y|10=095|
20190606-12:18:55.000000000 : 8=FIX.4.4|9=88|35=5|34=2|49=ORP_RESZ_B|52=20190606-12:18:55.000|56=BLPORPBETA|58=Incorrect BeginString|10=208|
20190606-12:18:55.000000000 : 8=FIX.4.4|9=0094|35=1|49=BLPORPBETA|56=ORP_RESZ_B|34=2|52=20190606-12:18:55.849451|112=L.0001.0002.0002.121855|10=089|
20190606-12:18:55.000000000 : 8=FIX.4.4|9=88|35=5|34=3|49=ORP_RESZ_B|52=20190606-12:18:55.000|56=BLPORPBETA|58=Incorrect BeginString|10=209|
20190606-12:18:55.000000000 : 8=FIX.4.4|9=0090|35=5|49=BLPORPBETA|56=ORP_RESZ_B|34=3|52=20190606-12:18:56.011378|58=Logout confirmed (3)|10=159|
20190606-12:19:14.000000000 : 8=FIX.4.4|9=81|35=A|34=1|49=ORP_RESZ_B|52=20190606-12:19:14.000|56=BLPORPBETA|98=0|108=60|141=Y|10=073|
20190606-12:19:14.000000000 : 8=FIX.4.4|9=0084|35=A|49=BLPORPBETA|56=ORP_RESZ_B|34=1|52=20190606-12:19:15.020071|98=0|108=60|141=Y|10=071|
20190606-12:19:14.000000000 : 8=FIX.4.4|9=88|35=5|34=2|49=ORP_RESZ_B|52=20190606-12:19:14.000|56=BLPORPBETA|58=Incorrect BeginString|10=204|
20190606-12:19:14.000000000 : 8=FIX.4.4|9=0094|35=1|49=BLPORPBETA|56=ORP_RESZ_B|34=2|52=20190606-12:19:15.020071|112=L.0001.0002.0002.121915|10=062|
20190606-12:19:15.000000000 : 8=FIX.4.4|9=88|35=5|34=3|49=ORP_RESZ_B|52=20190606-12:19:14.000|56=BLPORPBETA|58=Incorrect BeginString|10=205|
20190606-12:19:15.000000000 : 8=FIX.4.4|9=0090|35=5|49=BLPORPBETA|56=ORP_RESZ_B|34=3|52=20190606-12:19:15.020071|58=Logout confirmed (3)|10=145|
