20190521-09:52:05.000000000 : 8=FIXT.1.1|9=95|35=A|34=1|49=ORP_RESZ_B|52=20190521-09:52:05.000|56=BLPORPBETA|98=0|108=30|141=Y|1137=FIX50SP2|10=195|
20190521-09:52:35.000000000 : 8=FIXT.1.1|9=95|35=A|34=1|49=ORP_RESZ_B|52=20190521-09:52:35.000|56=BLPORPBETA|98=0|108=30|141=Y|1137=FIX50SP2|10=198|
20190521-09:53:05.000000000 : 8=FIXT.1.1|9=95|35=A|34=1|49=ORP_RESZ_B|52=20190521-09:53:05.000|56=BLPORPBETA|98=0|108=30|141=Y|1137=FIX50SP2|10=196|
20190521-09:53:33.000000000 : 8=FIXT.1.1|9=95|35=A|34=1|49=ORP_RESZ_B|52=20190521-09:53:33.000|56=BLPORPBETA|98=0|108=30|141=Y|1137=FIX50SP2|10=197|
20190521-09:54:04.000000000 : 8=FIXT.1.1|9=95|35=A|34=1|49=ORP_RESZ_B|52=20190521-09:54:03.000|56=BLPORPBETA|98=0|108=30|141=Y|1137=FIX50SP2|10=195|
20190521-09:54:34.000000000 : 8=FIXT.1.1|9=95|35=A|34=1|49=ORP_RESZ_B|52=20190521-09:54:33.000|56=BLPORPBETA|98=0|108=30|141=Y|1137=FIX50SP2|10=198|
20190521-09:55:04.000000000 : 8=FIXT.1.1|9=95|35=A|34=1|49=ORP_RESZ_B|52=20190521-09:55:04.000|56=BLPORPBETA|98=0|108=30|141=Y|1137=FIX50SP2|10=197|
20190521-09:55:34.000000000 : 8=FIXT.1.1|9=95|35=A|34=1|49=ORP_RESZ_B|52=20190521-09:55:34.000|56=BLPORPBETA|98=0|108=30|141=Y|1137=FIX50SP2|10=200|
20190521-09:56:04.000000000 : 8=FIXT.1.1|9=95|35=A|34=1|49=ORP_RESZ_B|52=20190521-09:56:04.000|56=BLPORPBETA|98=0|108=30|141=Y|1137=FIX50SP2|10=198|
20190521-09:56:34.000000000 : 8=FIXT.1.1|9=95|35=A|34=1|49=ORP_RESZ_B|52=20190521-09:56:34.000|56=BLPORPBETA|98=0|108=30|141=Y|1137=FIX50SP2|10=201|
20190521-09:57:04.000000000 : 8=FIXT.1.1|9=95|35=A|34=1|49=ORP_RESZ_B|52=20190521-09:57:04.000|56=BLPORPBETA|98=0|108=30|141=Y|1137=FIX50SP2|10=199|
20190521-09:57:34.000000000 : 8=FIXT.1.1|9=95|35=A|34=1|49=ORP_RESZ_B|52=20190521-09:57:34.000|56=BLPORPBETA|98=0|108=30|141=Y|1137=FIX50SP2|10=202|
20190521-09:58:01.000000000 : 8=FIXT.1.1|9=95|35=A|34=1|49=ORP_RESZ_B|52=20190521-09:58:01.000|56=BLPORPBETA|98=0|108=30|141=Y|1137=FIX50SP2|10=197|
20190521-09:58:31.000000000 : 8=FIXT.1.1|9=95|35=A|34=1|49=ORP_RESZ_B|52=20190521-09:58:31.000|56=BLPORPBETA|98=0|108=30|141=Y|1137=FIX50SP2|10=200|
20190521-09:59:01.000000000 : 8=FIXT.1.1|9=95|35=A|34=1|49=ORP_RESZ_B|52=20190521-09:59:01.000|56=BLPORPBETA|98=0|108=30|141=Y|1137=FIX50SP2|10=198|
20190521-09:59:31.000000000 : 8=FIXT.1.1|9=95|35=A|34=1|49=ORP_RESZ_B|52=20190521-09:59:31.000|56=BLPORPBETA|98=0|108=30|141=Y|1137=FIX50SP2|10=201|
20190521-10:00:01.000000000 : 8=FIXT.1.1|9=95|35=A|34=1|49=ORP_RESZ_B|52=20190521-10:00:01.000|56=BLPORPBETA|98=0|108=30|141=Y|1137=FIX50SP2|10=176|
20190521-10:00:31.000000000 : 8=FIXT.1.1|9=95|35=A|34=1|49=ORP_RESZ_B|52=20190521-10:00:31.000|56=BLPORPBETA|98=0|108=30|141=Y|1137=FIX50SP2|10=179|
20190521-10:01:01.000000000 : 8=FIXT.1.1|9=95|35=A|34=1|49=ORP_RESZ_B|52=20190521-10:01:01.000|56=BLPORPBETA|98=0|108=30|141=Y|1137=FIX50SP2|10=177|
20190521-10:01:31.000000000 : 8=FIXT.1.1|9=95|35=A|34=1|49=ORP_RESZ_B|52=20190521-10:01:31.000|56=BLPORPBETA|98=0|108=30|141=Y|1137=FIX50SP2|10=180|
20190521-10:01:44.000000000 : 8=FIXT.1.1|9=95|35=A|34=1|49=ORP_RESZ_B|52=20190521-10:01:44.000|56=BLPORPBETA|98=0|108=30|141=Y|1137=FIX50SP2|10=184|
20190521-10:02:14.000000000 : 8=FIXT.1.1|9=95|35=A|34=1|49=ORP_RESZ_B|52=20190521-10:02:14.000|56=BLPORPBETA|98=0|108=30|141=Y|1137=FIX50SP2|10=182|
20190521-10:02:44.000000000 : 8=FIXT.1.1|9=95|35=A|34=1|49=ORP_RESZ_B|52=20190521-10:02:44.000|56=BLPORPBETA|98=0|108=30|141=Y|1137=FIX50SP2|10=185|
20190521-10:03:03.000000000 : 8=FIXT.1.1|9=95|35=A|34=1|49=ORP_RESZ_B|52=20190521-10:03:03.000|56=BLPORPBETA|98=0|108=30|141=Y|1137=FIX50SP2|10=181|
20190521-10:03:33.000000000 : 8=FIXT.1.1|9=95|35=A|34=1|49=ORP_RESZ_B|52=20190521-10:03:33.000|56=BLPORPBETA|98=0|108=30|141=Y|1137=FIX50SP2|10=184|
20190521-10:03:46.000000000 : 8=FIXT.1.1|9=95|35=A|34=1|49=ORP_RESZ_B|52=20190521-10:03:46.000|56=BLPORPBETA|98=0|108=30|141=Y|1137=FIX50SP2|10=188|
20190521-10:04:16.000000000 : 8=FIXT.1.1|9=95|35=A|34=1|49=ORP_RESZ_B|52=20190521-10:04:16.000|56=BLPORPBETA|98=0|108=30|141=Y|1137=FIX50SP2|10=186|
20190521-10:04:46.000000000 : 8=FIXT.1.1|9=95|35=A|34=1|49=ORP_RESZ_B|52=20190521-10:04:46.000|56=BLPORPBETA|98=0|108=30|141=Y|1137=FIX50SP2|10=189|
20190521-10:05:16.000000000 : 8=FIXT.1.1|9=95|35=A|34=1|49=ORP_RESZ_B|52=20190521-10:05:16.000|56=BLPORPBETA|98=0|108=30|141=Y|1137=FIX50SP2|10=187|
20190521-10:08:41.000000000 : 8=FIXT.1.1|9=95|35=A|34=1|49=ORP_RESZ_B|52=20190521-10:08:41.000|56=BLPORPBETA|98=0|108=30|141=Y|1137=FIX50SP2|10=188|
20190521-10:09:11.000000000 : 8=FIXT.1.1|9=95|35=A|34=1|49=ORP_RESZ_B|52=20190521-10:09:11.000|56=BLPORPBETA|98=0|108=30|141=Y|1137=FIX50SP2|10=186|
20190521-10:09:41.000000000 : 8=FIXT.1.1|9=95|35=A|34=1|49=ORP_RESZ_B|52=20190521-10:09:41.000|56=BLPORPBETA|98=0|108=30|141=Y|1137=FIX50SP2|10=189|
20190521-10:10:11.000000000 : 8=FIXT.1.1|9=95|35=A|34=1|49=ORP_RESZ_B|52=20190521-10:10:11.000|56=BLPORPBETA|98=0|108=30|141=Y|1137=FIX50SP2|10=178|
20190521-10:10:41.000000000 : 8=FIXT.1.1|9=95|35=A|34=1|49=ORP_RESZ_B|52=20190521-10:10:41.000|56=BLPORPBETA|98=0|108=30|141=Y|1137=FIX50SP2|10=181|
20190521-10:11:11.000000000 : 8=FIXT.1.1|9=95|35=A|34=1|49=ORP_RESZ_B|52=20190521-10:11:11.000|56=BLPORPBETA|98=0|108=30|141=Y|1137=FIX50SP2|10=179|
20190521-10:11:38.000000000 : 8=FIXT.1.1|9=95|35=A|34=1|49=ORP_RESZ_B|52=20190521-10:11:38.000|56=BLPORPBETA|98=0|108=30|141=Y|1137=FIX50SP2|10=188|
20190521-10:12:08.000000000 : 8=FIXT.1.1|9=95|35=A|34=1|49=ORP_RESZ_B|52=20190521-10:12:08.000|56=BLPORPBETA|98=0|108=30|141=Y|1137=FIX50SP2|10=186|
20190521-10:12:38.000000000 : 8=FIXT.1.1|9=95|35=A|34=1|49=ORP_RESZ_B|52=20190521-10:12:38.000|56=BLPORPBETA|98=0|108=30|141=Y|1137=FIX50SP2|10=189|
20190521-10:13:08.000000000 : 8=FIXT.1.1|9=95|35=A|34=1|49=ORP_RESZ_B|52=20190521-10:13:08.000|56=BLPORPBETA|98=0|108=30|141=Y|1137=FIX50SP2|10=187|
20190521-10:13:38.000000000 : 8=FIXT.1.1|9=95|35=A|34=1|49=ORP_RESZ_B|52=20190521-10:13:38.000|56=BLPORPBETA|98=0|108=30|141=Y|1137=FIX50SP2|10=190|
20190521-10:14:08.000000000 : 8=FIXT.1.1|9=95|35=A|34=1|49=ORP_RESZ_B|52=20190521-10:14:08.000|56=BLPORPBETA|98=0|108=30|141=Y|1137=FIX50SP2|10=188|
20190521-10:14:38.000000000 : 8=FIXT.1.1|9=95|35=A|34=1|49=ORP_RESZ_B|52=20190521-10:14:38.000|56=BLPORPBETA|98=0|108=30|141=Y|1137=FIX50SP2|10=191|
20190521-10:15:08.000000000 : 8=FIXT.1.1|9=95|35=A|34=1|49=ORP_RESZ_B|52=20190521-10:15:08.000|56=BLPORPBETA|98=0|108=30|141=Y|1137=FIX50SP2|10=189|
20190521-10:15:38.000000000 : 8=FIXT.1.1|9=95|35=A|34=1|49=ORP_RESZ_B|52=20190521-10:15:38.000|56=BLPORPBETA|98=0|108=30|141=Y|1137=FIX50SP2|10=192|
20190521-10:16:08.000000000 : 8=FIXT.1.1|9=95|35=A|34=1|49=ORP_RESZ_B|52=20190521-10:16:08.000|56=BLPORPBETA|98=0|108=30|141=Y|1137=FIX50SP2|10=190|
20190521-10:16:38.000000000 : 8=FIXT.1.1|9=95|35=A|34=1|49=ORP_RESZ_B|52=20190521-10:16:38.000|56=BLPORPBETA|98=0|108=30|141=Y|1137=FIX50SP2|10=193|
20190521-10:17:08.000000000 : 8=FIXT.1.1|9=95|35=A|34=1|49=ORP_RESZ_B|52=20190521-10:17:08.000|56=BLPORPBETA|98=0|108=30|141=Y|1137=FIX50SP2|10=191|
20190521-10:17:38.000000000 : 8=FIXT.1.1|9=95|35=A|34=1|49=ORP_RESZ_B|52=20190521-10:17:38.000|56=BLPORPBETA|98=0|108=30|141=Y|1137=FIX50SP2|10=194|
20190521-10:18:08.000000000 : 8=FIXT.1.1|9=95|35=A|34=1|49=ORP_RESZ_B|52=20190521-10:18:08.000|56=BLPORPBETA|98=0|108=30|141=Y|1137=FIX50SP2|10=192|
20190521-10:18:38.000000000 : 8=FIXT.1.1|9=95|35=A|34=1|49=ORP_RESZ_B|52=20190521-10:18:38.000|56=BLPORPBETA|98=0|108=30|141=Y|1137=FIX50SP2|10=195|
20190521-10:19:08.000000000 : 8=FIXT.1.1|9=95|35=A|34=1|49=ORP_RESZ_B|52=20190521-10:19:08.000|56=BLPORPBETA|98=0|108=30|141=Y|1137=FIX50SP2|10=193|
20190521-10:19:38.000000000 : 8=FIXT.1.1|9=95|35=A|34=1|49=ORP_RESZ_B|52=20190521-10:19:38.000|56=BLPORPBETA|98=0|108=30|141=Y|1137=FIX50SP2|10=196|
20190521-10:20:08.000000000 : 8=FIXT.1.1|9=95|35=A|34=1|49=ORP_RESZ_B|52=20190521-10:20:08.000|56=BLPORPBETA|98=0|108=30|141=Y|1137=FIX50SP2|10=185|
20190521-10:20:38.000000000 : 8=FIXT.1.1|9=95|35=A|34=1|49=ORP_RESZ_B|52=20190521-10:20:38.000|56=BLPORPBETA|98=0|108=30|141=Y|1137=FIX50SP2|10=188|
20190521-10:21:08.000000000 : 8=FIXT.1.1|9=95|35=A|34=1|49=ORP_RESZ_B|52=20190521-10:21:08.000|56=BLPORPBETA|98=0|108=30|141=Y|1137=FIX50SP2|10=186|
20190521-10:21:38.000000000 : 8=FIXT.1.1|9=95|35=A|34=1|49=ORP_RESZ_B|52=20190521-10:21:38.000|56=BLPORPBETA|98=0|108=30|141=Y|1137=FIX50SP2|10=189|
20190521-10:22:08.000000000 : 8=FIXT.1.1|9=95|35=A|34=1|49=ORP_RESZ_B|52=20190521-10:22:08.000|56=BLPORPBETA|98=0|108=30|141=Y|1137=FIX50SP2|10=187|
20190521-10:22:33.000000000 : 8=FIXT.1.1|9=95|35=A|34=1|49=ORP_RESZ_B|52=20190521-10:22:33.000|56=BLPORPBETA|98=0|108=30|141=Y|1137=FIX50SP2|10=185|
20190521-10:23:03.000000000 : 8=FIXT.1.1|9=95|35=A|34=1|49=ORP_RESZ_B|52=20190521-10:23:03.000|56=BLPORPBETA|98=0|108=30|141=Y|1137=FIX50SP2|10=183|
20190521-10:23:33.000000000 : 8=FIXT.1.1|9=95|35=A|34=1|49=ORP_RESZ_B|52=20190521-10:23:33.000|56=BLPORPBETA|98=0|108=30|141=Y|1137=FIX50SP2|10=186|
20190521-10:24:02.000000000 : 8=FIXT.1.1|9=95|35=A|34=1|49=ORP_RESZ_B|52=20190521-10:24:02.000|56=BLPORPBETA|98=0|108=30|141=Y|1137=FIX50SP2|10=183|
20190521-10:24:32.000000000 : 8=FIXT.1.1|9=95|35=A|34=1|49=ORP_RESZ_B|52=20190521-10:24:32.000|56=BLPORPBETA|98=0|108=30|141=Y|1137=FIX50SP2|10=186|
20190521-10:25:02.000000000 : 8=FIXT.1.1|9=95|35=A|34=1|49=ORP_RESZ_B|52=20190521-10:25:02.000|56=BLPORPBETA|98=0|108=30|141=Y|1137=FIX50SP2|10=184|
20190521-10:25:32.000000000 : 8=FIXT.1.1|9=95|35=A|34=1|49=ORP_RESZ_B|52=20190521-10:25:32.000|56=BLPORPBETA|98=0|108=30|141=Y|1137=FIX50SP2|10=187|
20190521-10:26:02.000000000 : 8=FIXT.1.1|9=95|35=A|34=1|49=ORP_RESZ_B|52=20190521-10:26:02.000|56=BLPORPBETA|98=0|108=30|141=Y|1137=FIX50SP2|10=185|
20190521-10:26:32.000000000 : 8=FIXT.1.1|9=95|35=A|34=1|49=ORP_RESZ_B|52=20190521-10:26:32.000|56=BLPORPBETA|98=0|108=30|141=Y|1137=FIX50SP2|10=188|
20190521-10:27:02.000000000 : 8=FIXT.1.1|9=95|35=A|34=1|49=ORP_RESZ_B|52=20190521-10:27:02.000|56=BLPORPBETA|98=0|108=30|141=Y|1137=FIX50SP2|10=186|
20190521-10:27:32.000000000 : 8=FIXT.1.1|9=95|35=A|34=1|49=ORP_RESZ_B|52=20190521-10:27:32.000|56=BLPORPBETA|98=0|108=30|141=Y|1137=FIX50SP2|10=189|
20190521-10:28:02.000000000 : 8=FIXT.1.1|9=95|35=A|34=1|49=ORP_RESZ_B|52=20190521-10:28:02.000|56=BLPORPBETA|98=0|108=30|141=Y|1137=FIX50SP2|10=187|
20190521-10:28:20.000000000 : 8=FIXT.1.1|9=95|35=A|34=1|49=ORP_RESZ_B|52=20190521-10:28:20.000|56=BLPORPBETA|98=0|108=30|141=Y|1137=FIX50SP2|10=187|
20190521-10:28:50.000000000 : 8=FIXT.1.1|9=95|35=A|34=1|49=ORP_RESZ_B|52=20190521-10:28:50.000|56=BLPORPBETA|98=0|108=30|141=Y|1137=FIX50SP2|10=190|
20190521-10:29:20.000000000 : 8=FIXT.1.1|9=95|35=A|34=1|49=ORP_RESZ_B|52=20190521-10:29:20.000|56=BLPORPBETA|98=0|108=30|141=Y|1137=FIX50SP2|10=188|
20190521-10:29:50.000000000 : 8=FIXT.1.1|9=95|35=A|34=1|49=ORP_RESZ_B|52=20190521-10:29:50.000|56=BLPORPBETA|98=0|108=30|141=Y|1137=FIX50SP2|10=191|
20190521-10:30:11.000000000 : 8=FIXT.1.1|9=95|35=A|34=1|49=ORP_RESZ_B|52=20190521-10:30:11.000|56=BLPORPBETA|98=0|108=30|141=Y|1137=FIX50SP2|10=180|
20190521-10:30:41.000000000 : 8=FIXT.1.1|9=95|35=A|34=1|49=ORP_RESZ_B|52=20190521-10:30:41.000|56=BLPORPBETA|98=0|108=30|141=Y|1137=FIX50SP2|10=183|
20190521-10:31:11.000000000 : 8=FIXT.1.1|9=95|35=A|34=1|49=ORP_RESZ_B|52=20190521-10:31:11.000|56=BLPORPBETA|98=0|108=30|141=Y|1137=FIX50SP2|10=181|
20190521-10:31:41.000000000 : 8=FIXT.1.1|9=95|35=A|34=1|49=ORP_RESZ_B|52=20190521-10:31:41.000|56=BLPORPBETA|98=0|108=30|141=Y|1137=FIX50SP2|10=184|
20190521-10:32:11.000000000 : 8=FIXT.1.1|9=95|35=A|34=1|49=ORP_RESZ_B|52=20190521-10:32:11.000|56=BLPORPBETA|98=0|108=30|141=Y|1137=FIX50SP2|10=182|
20190521-10:32:41.000000000 : 8=FIXT.1.1|9=95|35=A|34=1|49=ORP_RESZ_B|52=20190521-10:32:41.000|56=BLPORPBETA|98=0|108=30|141=Y|1137=FIX50SP2|10=185|
20190521-10:33:11.000000000 : 8=FIXT.1.1|9=95|35=A|34=1|49=ORP_RESZ_B|52=20190521-10:33:11.000|56=BLPORPBETA|98=0|108=30|141=Y|1137=FIX50SP2|10=183|
20190521-10:33:41.000000000 : 8=FIXT.1.1|9=95|35=A|34=1|49=ORP_RESZ_B|52=20190521-10:33:41.000|56=BLPORPBETA|98=0|108=30|141=Y|1137=FIX50SP2|10=186|
20190521-10:34:11.000000000 : 8=FIXT.1.1|9=95|35=A|34=1|49=ORP_RESZ_B|52=20190521-10:34:11.000|56=BLPORPBETA|98=0|108=30|141=Y|1137=FIX50SP2|10=184|
20190521-10:34:41.000000000 : 8=FIXT.1.1|9=95|35=A|34=1|49=ORP_RESZ_B|52=20190521-10:34:41.000|56=BLPORPBETA|98=0|108=30|141=Y|1137=FIX50SP2|10=187|
20190521-10:35:11.000000000 : 8=FIXT.1.1|9=95|35=A|34=1|49=ORP_RESZ_B|52=20190521-10:35:11.000|56=BLPORPBETA|98=0|108=30|141=Y|1137=FIX50SP2|10=185|
20190521-10:35:41.000000000 : 8=FIXT.1.1|9=95|35=A|34=1|49=ORP_RESZ_B|52=20190521-10:35:41.000|56=BLPORPBETA|98=0|108=30|141=Y|1137=FIX50SP2|10=188|
20190521-10:36:11.000000000 : 8=FIXT.1.1|9=95|35=A|34=1|49=ORP_RESZ_B|52=20190521-10:36:11.000|56=BLPORPBETA|98=0|108=30|141=Y|1137=FIX50SP2|10=186|
20190521-10:36:41.000000000 : 8=FIXT.1.1|9=95|35=A|34=1|49=ORP_RESZ_B|52=20190521-10:36:41.000|56=BLPORPBETA|98=0|108=30|141=Y|1137=FIX50SP2|10=189|
20190521-10:37:11.000000000 : 8=FIXT.1.1|9=95|35=A|34=1|49=ORP_RESZ_B|52=20190521-10:37:11.000|56=BLPORPBETA|98=0|108=30|141=Y|1137=FIX50SP2|10=187|
20190521-10:37:41.000000000 : 8=FIXT.1.1|9=95|35=A|34=1|49=ORP_RESZ_B|52=20190521-10:37:41.000|56=BLPORPBETA|98=0|108=30|141=Y|1137=FIX50SP2|10=190|
20190521-10:38:11.000000000 : 8=FIXT.1.1|9=95|35=A|34=1|49=ORP_RESZ_B|52=20190521-10:38:11.000|56=BLPORPBETA|98=0|108=30|141=Y|1137=FIX50SP2|10=188|
20190521-10:38:41.000000000 : 8=FIXT.1.1|9=95|35=A|34=1|49=ORP_RESZ_B|52=20190521-10:38:41.000|56=BLPORPBETA|98=0|108=30|141=Y|1137=FIX50SP2|10=191|
20190521-10:38:50.000000000 : 8=FIXT.1.1|9=95|35=A|34=1|49=ORP_RESZ_B|52=20190521-10:38:50.000|56=BLPORPBETA|98=0|108=30|141=Y|1137=FIX50SP2|10=191|
20190521-10:39:20.000000000 : 8=FIXT.1.1|9=95|35=A|34=1|49=ORP_RESZ_B|52=20190521-10:39:20.000|56=BLPORPBETA|98=0|108=30|141=Y|1137=FIX50SP2|10=189|
20190521-10:39:38.000000000 : 8=FIXT.1.1|9=95|35=A|34=1|49=ORP_RESZ_B|52=20190521-10:39:38.000|56=BLPORPBETA|98=0|108=30|141=Y|1137=FIX50SP2|10=198|
20190521-10:40:08.000000000 : 8=FIXT.1.1|9=95|35=A|34=1|49=ORP_RESZ_B|52=20190521-10:40:08.000|56=BLPORPBETA|98=0|108=30|141=Y|1137=FIX50SP2|10=187|
20190521-10:40:38.000000000 : 8=FIXT.1.1|9=95|35=A|34=1|49=ORP_RESZ_B|52=20190521-10:40:38.000|56=BLPORPBETA|98=0|108=30|141=Y|1137=FIX50SP2|10=190|
20190521-10:41:08.000000000 : 8=FIXT.1.1|9=95|35=A|34=1|49=ORP_RESZ_B|52=20190521-10:41:08.000|56=BLPORPBETA|98=0|108=30|141=Y|1137=FIX50SP2|10=188|
20190521-10:41:25.000000000 : 8=FIXT.1.1|9=95|35=A|34=1|49=ORP_RESZ_B|52=20190521-10:41:25.000|56=BLPORPBETA|98=0|108=30|141=Y|1137=FIX50SP2|10=187|
20190521-10:41:55.000000000 : 8=FIXT.1.1|9=95|35=A|34=1|49=ORP_RESZ_B|52=20190521-10:41:55.000|56=BLPORPBETA|98=0|108=30|141=Y|1137=FIX50SP2|10=190|
20190521-10:42:25.000000000 : 8=FIXT.1.1|9=95|35=A|34=1|49=ORP_RESZ_B|52=20190521-10:42:25.000|56=BLPORPBETA|98=0|108=30|141=Y|1137=FIX50SP2|10=188|
20190521-10:42:39.000000000 : 8=FIXT.1.1|9=95|35=A|34=1|49=ORP_RESZ_B|52=20190521-10:42:39.000|56=BLPORPBETA|98=0|108=30|141=Y|1137=FIX50SP2|10=193|
20190521-10:43:09.000000000 : 8=FIXT.1.1|9=95|35=A|34=1|49=ORP_RESZ_B|52=20190521-10:43:09.000|56=BLPORPBETA|98=0|108=30|141=Y|1137=FIX50SP2|10=191|
20190521-10:43:39.000000000 : 8=FIXT.1.1|9=95|35=A|34=1|49=ORP_RESZ_B|52=20190521-10:43:39.000|56=BLPORPBETA|98=0|108=30|141=Y|1137=FIX50SP2|10=194|
20190521-10:44:09.000000000 : 8=FIXT.1.1|9=95|35=A|34=1|49=ORP_RESZ_B|52=20190521-10:44:09.000|56=BLPORPBETA|98=0|108=30|141=Y|1137=FIX50SP2|10=192|
20190521-10:44:39.000000000 : 8=FIXT.1.1|9=95|35=A|34=1|49=ORP_RESZ_B|52=20190521-10:44:39.000|56=BLPORPBETA|98=0|108=30|141=Y|1137=FIX50SP2|10=195|
20190521-10:44:49.000000000 : 8=FIXT.1.1|9=95|35=A|34=1|49=ORP_RESZ_B|52=20190521-10:44:49.000|56=BLPORPBETA|98=0|108=30|141=Y|1137=FIX50SP2|10=196|
20190521-10:45:19.000000000 : 8=FIXT.1.1|9=95|35=A|34=1|49=ORP_RESZ_B|52=20190521-10:45:19.000|56=BLPORPBETA|98=0|108=30|141=Y|1137=FIX50SP2|10=194|
20190521-10:45:49.000000000 : 8=FIXT.1.1|9=95|35=A|34=1|49=ORP_RESZ_B|52=20190521-10:45:49.000|56=BLPORPBETA|98=0|108=30|141=Y|1137=FIX50SP2|10=197|
20190521-10:46:17.000000000 : 8=FIXT.1.1|9=95|35=A|34=1|49=ORP_RESZ_B|52=20190521-10:46:16.000|56=BLPORPBETA|98=0|108=30|141=Y|1137=FIX50SP2|10=192|
20190521-10:46:48.000000000 : 8=FIXT.1.1|9=95|35=A|34=1|49=ORP_RESZ_B|52=20190521-10:46:48.000|56=BLPORPBETA|98=0|108=30|141=Y|1137=FIX50SP2|10=197|
20190521-10:47:18.000000000 : 8=FIXT.1.1|9=95|35=A|34=1|49=ORP_RESZ_B|52=20190521-10:47:18.000|56=BLPORPBETA|98=0|108=30|141=Y|1137=FIX50SP2|10=195|
20190521-10:47:48.000000000 : 8=FIXT.1.1|9=95|35=A|34=1|49=ORP_RESZ_B|52=20190521-10:47:48.000|56=BLPORPBETA|98=0|108=30|141=Y|1137=FIX50SP2|10=198|
20190521-10:48:18.000000000 : 8=FIXT.1.1|9=95|35=A|34=1|49=ORP_RESZ_B|52=20190521-10:48:18.000|56=BLPORPBETA|98=0|108=30|141=Y|1137=FIX50SP2|10=196|
20190521-10:48:48.000000000 : 8=FIXT.1.1|9=95|35=A|34=1|49=ORP_RESZ_B|52=20190521-10:48:48.000|56=BLPORPBETA|98=0|108=30|141=Y|1137=FIX50SP2|10=199|
20190521-10:49:18.000000000 : 8=FIXT.1.1|9=95|35=A|34=1|49=ORP_RESZ_B|52=20190521-10:49:18.000|56=BLPORPBETA|98=0|108=30|141=Y|1137=FIX50SP2|10=197|
20190521-10:49:48.000000000 : 8=FIXT.1.1|9=95|35=A|34=1|49=ORP_RESZ_B|52=20190521-10:49:48.000|56=BLPORPBETA|98=0|108=30|141=Y|1137=FIX50SP2|10=200|
20190521-10:50:18.000000000 : 8=FIXT.1.1|9=95|35=A|34=1|49=ORP_RESZ_B|52=20190521-10:50:18.000|56=BLPORPBETA|98=0|108=30|141=Y|1137=FIX50SP2|10=189|
20190521-10:50:40.000000000 : 8=FIXT.1.1|9=95|35=A|34=1|49=ORP_RESZ_B|52=20190521-10:50:40.000|56=BLPORPBETA|98=0|108=30|141=Y|1137=FIX50SP2|10=184|
20190521-10:51:10.000000000 : 8=FIXT.1.1|9=95|35=A|34=1|49=ORP_RESZ_B|52=20190521-10:51:10.000|56=BLPORPBETA|98=0|108=30|141=Y|1137=FIX50SP2|10=182|
20190521-10:51:37.000000000 : 8=FIXT.1.1|9=95|35=A|34=1|49=ORP_RESZ_B|52=20190521-10:51:37.000|56=BLPORPBETA|98=0|108=30|141=Y|1137=FIX50SP2|10=191|
20190521-10:52:07.000000000 : 8=FIXT.1.1|9=95|35=A|34=1|49=ORP_RESZ_B|52=20190521-10:52:07.000|56=BLPORPBETA|98=0|108=30|141=Y|1137=FIX50SP2|10=189|
20190521-10:52:37.000000000 : 8=FIXT.1.1|9=95|35=A|34=1|49=ORP_RESZ_B|52=20190521-10:52:37.000|56=BLPORPBETA|98=0|108=30|141=Y|1137=FIX50SP2|10=192|
20190521-10:52:51.000000000 : 8=FIXT.1.1|9=95|35=A|34=1|49=ORP_RESZ_B|52=20190521-10:52:51.000|56=BLPORPBETA|98=0|108=30|141=Y|1137=FIX50SP2|10=188|
20190521-10:53:21.000000000 : 8=FIXT.1.1|9=95|35=A|34=1|49=ORP_RESZ_B|52=20190521-10:53:21.000|56=BLPORPBETA|98=0|108=30|141=Y|1137=FIX50SP2|10=186|
20190521-10:53:51.000000000 : 8=FIXT.1.1|9=95|35=A|34=1|49=ORP_RESZ_B|52=20190521-10:53:51.000|56=BLPORPBETA|98=0|108=30|141=Y|1137=FIX50SP2|10=189|
20190521-10:54:21.000000000 : 8=FIXT.1.1|9=95|35=A|34=1|49=ORP_RESZ_B|52=20190521-10:54:21.000|56=BLPORPBETA|98=0|108=30|141=Y|1137=FIX50SP2|10=187|
20190521-10:54:51.000000000 : 8=FIXT.1.1|9=95|35=A|34=1|49=ORP_RESZ_B|52=20190521-10:54:51.000|56=BLPORPBETA|98=0|108=30|141=Y|1137=FIX50SP2|10=190|
20190521-10:55:21.000000000 : 8=FIXT.1.1|9=95|35=A|34=1|49=ORP_RESZ_B|52=20190521-10:55:21.000|56=BLPORPBETA|98=0|108=30|141=Y|1137=FIX50SP2|10=188|
20190521-10:55:51.000000000 : 8=FIXT.1.1|9=95|35=A|34=1|49=ORP_RESZ_B|52=20190521-10:55:51.000|56=BLPORPBETA|98=0|108=30|141=Y|1137=FIX50SP2|10=191|
20190521-10:56:21.000000000 : 8=FIXT.1.1|9=95|35=A|34=1|49=ORP_RESZ_B|52=20190521-10:56:21.000|56=BLPORPBETA|98=0|108=30|141=Y|1137=FIX50SP2|10=189|
20190521-10:56:40.000000000 : 8=FIXT.1.1|9=95|35=A|34=1|49=ORP_RESZ_B|52=20190521-10:56:40.000|56=BLPORPBETA|98=0|108=30|141=Y|1137=FIX50SP2|10=190|
20190521-10:56:50.000000000 : 8=FIXT.1.1|9=95|35=A|34=1|49=ORP_RESZ_B|52=20190521-10:56:50.000|56=BLPORPBETA|98=0|108=30|141=Y|1137=FIX50SP2|10=191|
20190521-10:57:00.000000000 : 8=FIXT.1.1|9=95|35=A|34=1|49=ORP_RESZ_B|52=20190521-10:57:00.000|56=BLPORPBETA|98=0|108=30|141=Y|1137=FIX50SP2|10=187|
20190521-10:57:10.000000000 : 8=FIXT.1.1|9=95|35=A|34=1|49=ORP_RESZ_B|52=20190521-10:57:10.000|56=BLPORPBETA|98=0|108=30|141=Y|1137=FIX50SP2|10=188|
20190521-10:57:20.000000000 : 8=FIXT.1.1|9=95|35=A|34=1|49=ORP_RESZ_B|52=20190521-10:57:20.000|56=BLPORPBETA|98=0|108=30|141=Y|1137=FIX50SP2|10=189|
20190521-10:57:30.000000000 : 8=FIXT.1.1|9=95|35=A|34=1|49=ORP_RESZ_B|52=20190521-10:57:30.000|56=BLPORPBETA|98=0|108=30|141=Y|1137=FIX50SP2|10=190|
20190521-10:57:40.000000000 : 8=FIXT.1.1|9=95|35=A|34=1|49=ORP_RESZ_B|52=20190521-10:57:40.000|56=BLPORPBETA|98=0|108=30|141=Y|1137=FIX50SP2|10=191|
20190521-10:57:50.000000000 : 8=FIXT.1.1|9=95|35=A|34=1|49=ORP_RESZ_B|52=20190521-10:57:50.000|56=BLPORPBETA|98=0|108=30|141=Y|1137=FIX50SP2|10=192|
20190521-10:58:00.000000000 : 8=FIXT.1.1|9=95|35=A|34=1|49=ORP_RESZ_B|52=20190521-10:58:00.000|56=BLPORPBETA|98=0|108=30|141=Y|1137=FIX50SP2|10=188|
20190521-10:58:10.000000000 : 8=FIXT.1.1|9=95|35=A|34=1|49=ORP_RESZ_B|52=20190521-10:58:10.000|56=BLPORPBETA|98=0|108=30|141=Y|1137=FIX50SP2|10=189|
20190521-10:58:20.000000000 : 8=FIXT.1.1|9=95|35=A|34=1|49=ORP_RESZ_B|52=20190521-10:58:20.000|56=BLPORPBETA|98=0|108=30|141=Y|1137=FIX50SP2|10=190|
20190521-10:58:30.000000000 : 8=FIXT.1.1|9=95|35=A|34=1|49=ORP_RESZ_B|52=20190521-10:58:30.000|56=BLPORPBETA|98=0|108=30|141=Y|1137=FIX50SP2|10=191|
20190521-10:58:40.000000000 : 8=FIXT.1.1|9=95|35=A|34=1|49=ORP_RESZ_B|52=20190521-10:58:40.000|56=BLPORPBETA|98=0|108=30|141=Y|1137=FIX50SP2|10=192|
20190521-10:58:50.000000000 : 8=FIXT.1.1|9=95|35=A|34=1|49=ORP_RESZ_B|52=20190521-10:58:50.000|56=BLPORPBETA|98=0|108=30|141=Y|1137=FIX50SP2|10=193|
20190521-10:59:00.000000000 : 8=FIXT.1.1|9=95|35=A|34=1|49=ORP_RESZ_B|52=20190521-10:59:00.000|56=BLPORPBETA|98=0|108=30|141=Y|1137=FIX50SP2|10=189|
20190521-10:59:03.000000000 : 8=FIXT.1.1|9=95|35=A|34=1|49=ORP_RESZ_B|52=20190521-10:59:03.000|56=BLPORPBETA|98=0|108=30|141=Y|1137=FIX50SP2|10=192|
20190521-10:59:13.000000000 : 8=FIXT.1.1|9=95|35=A|34=1|49=ORP_RESZ_B|52=20190521-10:59:13.000|56=BLPORPBETA|98=0|108=30|141=Y|1137=FIX50SP2|10=193|
20190521-10:59:23.000000000 : 8=FIXT.1.1|9=95|35=A|34=1|49=ORP_RESZ_B|52=20190521-10:59:23.000|56=BLPORPBETA|98=0|108=30|141=Y|1137=FIX50SP2|10=194|
20190521-10:59:33.000000000 : 8=FIXT.1.1|9=95|35=A|34=1|49=ORP_RESZ_B|52=20190521-10:59:33.000|56=BLPORPBETA|98=0|108=30|141=Y|1137=FIX50SP2|10=195|
20190521-10:59:43.000000000 : 8=FIXT.1.1|9=95|35=A|34=1|49=ORP_RESZ_B|52=20190521-10:59:43.000|56=BLPORPBETA|98=0|108=30|141=Y|1137=FIX50SP2|10=196|
20190521-10:59:53.000000000 : 8=FIXT.1.1|9=95|35=A|34=1|49=ORP_RESZ_B|52=20190521-10:59:53.000|56=BLPORPBETA|98=0|108=30|141=Y|1137=FIX50SP2|10=197|
20190521-11:00:03.000000000 : 8=FIXT.1.1|9=95|35=A|34=1|49=ORP_RESZ_B|52=20190521-11:00:03.000|56=BLPORPBETA|98=0|108=30|141=Y|1137=FIX50SP2|10=179|
20190521-11:00:13.000000000 : 8=FIXT.1.1|9=95|35=A|34=1|49=ORP_RESZ_B|52=20190521-11:00:13.000|56=BLPORPBETA|98=0|108=30|141=Y|1137=FIX50SP2|10=180|
20190521-11:00:23.000000000 : 8=FIXT.1.1|9=95|35=A|34=1|49=ORP_RESZ_B|52=20190521-11:00:23.000|56=BLPORPBETA|98=0|108=30|141=Y|1137=FIX50SP2|10=181|
20190521-11:00:33.000000000 : 8=FIXT.1.1|9=95|35=A|34=1|49=ORP_RESZ_B|52=20190521-11:00:33.000|56=BLPORPBETA|98=0|108=30|141=Y|1137=FIX50SP2|10=182|
20190521-11:00:44.000000000 : 8=FIXT.1.1|9=95|35=A|34=1|49=ORP_RESZ_B|52=20190521-11:00:44.000|56=BLPORPBETA|98=0|108=30|141=Y|1137=FIX50SP2|10=184|
20190521-11:00:54.000000000 : 8=FIXT.1.1|9=95|35=A|34=1|49=ORP_RESZ_B|52=20190521-11:00:54.000|56=BLPORPBETA|98=0|108=30|141=Y|1137=FIX50SP2|10=185|
20190521-11:01:04.000000000 : 8=FIXT.1.1|9=95|35=A|34=1|49=ORP_RESZ_B|52=20190521-11:01:04.000|56=BLPORPBETA|98=0|108=30|141=Y|1137=FIX50SP2|10=181|
20190521-11:01:14.000000000 : 8=FIXT.1.1|9=95|35=A|34=1|49=ORP_RESZ_B|52=20190521-11:01:14.000|56=BLPORPBETA|98=0|108=30|141=Y|1137=FIX50SP2|10=182|
20190521-11:01:24.000000000 : 8=FIXT.1.1|9=95|35=A|34=1|49=ORP_RESZ_B|52=20190521-11:01:24.000|56=BLPORPBETA|98=0|108=30|141=Y|1137=FIX50SP2|10=183|
20190521-11:01:34.000000000 : 8=FIXT.1.1|9=95|35=A|34=1|49=ORP_RESZ_B|52=20190521-11:01:34.000|56=BLPORPBETA|98=0|108=30|141=Y|1137=FIX50SP2|10=184|
20190521-11:01:44.000000000 : 8=FIXT.1.1|9=95|35=A|34=1|49=ORP_RESZ_B|52=20190521-11:01:44.000|56=BLPORPBETA|98=0|108=30|141=Y|1137=FIX50SP2|10=185|
20190521-11:01:54.000000000 : 8=FIXT.1.1|9=95|35=A|34=1|49=ORP_RESZ_B|52=20190521-11:01:54.000|56=BLPORPBETA|98=0|108=30|141=Y|1137=FIX50SP2|10=186|
20190521-11:02:05.000000000 : 8=FIXT.1.1|9=95|35=A|34=1|49=ORP_RESZ_B|52=20190521-11:02:05.000|56=BLPORPBETA|98=0|108=30|141=Y|1137=FIX50SP2|10=183|
20190521-11:02:15.000000000 : 8=FIXT.1.1|9=95|35=A|34=1|49=ORP_RESZ_B|52=20190521-11:02:15.000|56=BLPORPBETA|98=0|108=30|141=Y|1137=FIX50SP2|10=184|
20190521-11:02:25.000000000 : 8=FIXT.1.1|9=95|35=A|34=1|49=ORP_RESZ_B|52=20190521-11:02:25.000|56=BLPORPBETA|98=0|108=30|141=Y|1137=FIX50SP2|10=185|
20190521-11:02:35.000000000 : 8=FIXT.1.1|9=95|35=A|34=1|49=ORP_RESZ_B|52=20190521-11:02:35.000|56=BLPORPBETA|98=0|108=30|141=Y|1137=FIX50SP2|10=186|
20190521-11:02:45.000000000 : 8=FIXT.1.1|9=95|35=A|34=1|49=ORP_RESZ_B|52=20190521-11:02:45.000|56=BLPORPBETA|98=0|108=30|141=Y|1137=FIX50SP2|10=187|
20190521-11:02:56.000000000 : 8=FIXT.1.1|9=95|35=A|34=1|49=ORP_RESZ_B|52=20190521-11:02:55.000|56=BLPORPBETA|98=0|108=30|141=Y|1137=FIX50SP2|10=188|
20190521-11:03:06.000000000 : 8=FIXT.1.1|9=95|35=A|34=1|49=ORP_RESZ_B|52=20190521-11:03:05.000|56=BLPORPBETA|98=0|108=30|141=Y|1137=FIX50SP2|10=184|
20190521-11:03:16.000000000 : 8=FIXT.1.1|9=95|35=A|34=1|49=ORP_RESZ_B|52=20190521-11:03:15.000|56=BLPORPBETA|98=0|108=30|141=Y|1137=FIX50SP2|10=185|
20190521-11:03:26.000000000 : 8=FIXT.1.1|9=95|35=A|34=1|49=ORP_RESZ_B|52=20190521-11:03:26.000|56=BLPORPBETA|98=0|108=30|141=Y|1137=FIX50SP2|10=187|
20190521-11:03:36.000000000 : 8=FIXT.1.1|9=95|35=A|34=1|49=ORP_RESZ_B|52=20190521-11:03:36.000|56=BLPORPBETA|98=0|108=30|141=Y|1137=FIX50SP2|10=188|
20190521-11:03:46.000000000 : 8=FIXT.1.1|9=95|35=A|34=1|49=ORP_RESZ_B|52=20190521-11:03:46.000|56=BLPORPBETA|98=0|108=30|141=Y|1137=FIX50SP2|10=189|
20190521-11:03:56.000000000 : 8=FIXT.1.1|9=95|35=A|34=1|49=ORP_RESZ_B|52=20190521-11:03:56.000|56=BLPORPBETA|98=0|108=30|141=Y|1137=FIX50SP2|10=190|
20190521-11:04:06.000000000 : 8=FIXT.1.1|9=95|35=A|34=1|49=ORP_RESZ_B|52=20190521-11:04:06.000|56=BLPORPBETA|98=0|108=30|141=Y|1137=FIX50SP2|10=186|
20190521-11:04:15.000000000 : 8=FIXT.1.1|9=95|35=A|34=1|49=ORP_RESZ_B|52=20190521-11:04:15.000|56=BLPORPBETA|98=0|108=30|141=Y|1137=FIX50SP2|10=186|
20190521-11:04:25.000000000 : 8=FIXT.1.1|9=95|35=A|34=1|49=ORP_RESZ_B|52=20190521-11:04:25.000|56=BLPORPBETA|98=0|108=30|141=Y|1137=FIX50SP2|10=187|
20190521-11:04:35.000000000 : 8=FIXT.1.1|9=95|35=A|34=1|49=ORP_RESZ_B|52=20190521-11:04:35.000|56=BLPORPBETA|98=0|108=30|141=Y|1137=FIX50SP2|10=188|
20190521-11:04:45.000000000 : 8=FIXT.1.1|9=95|35=A|34=1|49=ORP_RESZ_B|52=20190521-11:04:45.000|56=BLPORPBETA|98=0|108=30|141=Y|1137=FIX50SP2|10=189|
20190521-11:04:55.000000000 : 8=FIXT.1.1|9=95|35=A|34=1|49=ORP_RESZ_B|52=20190521-11:04:55.000|56=BLPORPBETA|98=0|108=30|141=Y|1137=FIX50SP2|10=190|
20190521-11:05:05.000000000 : 8=FIXT.1.1|9=95|35=A|34=1|49=ORP_RESZ_B|52=20190521-11:05:05.000|56=BLPORPBETA|98=0|108=30|141=Y|1137=FIX50SP2|10=186|
20190521-11:05:15.000000000 : 8=FIXT.1.1|9=95|35=A|34=1|49=ORP_RESZ_B|52=20190521-11:05:15.000|56=BLPORPBETA|98=0|108=30|141=Y|1137=FIX50SP2|10=187|
20190521-11:05:23.000000000 : 8=FIXT.1.1|9=95|35=A|34=1|49=ORP_RESZ_B|52=20190521-11:05:23.000|56=BLPORPBETA|98=0|108=30|141=Y|1137=FIX50SP2|10=186|
20190521-11:05:33.000000000 : 8=FIXT.1.1|9=95|35=A|34=1|49=ORP_RESZ_B|52=20190521-11:05:33.000|56=BLPORPBETA|98=0|108=30|141=Y|1137=FIX50SP2|10=187|
20190521-11:05:43.000000000 : 8=FIXT.1.1|9=95|35=A|34=1|49=ORP_RESZ_B|52=20190521-11:05:43.000|56=BLPORPBETA|98=0|108=30|141=Y|1137=FIX50SP2|10=188|
20190521-11:05:53.000000000 : 8=FIXT.1.1|9=95|35=A|34=1|49=ORP_RESZ_B|52=20190521-11:05:53.000|56=BLPORPBETA|98=0|108=30|141=Y|1137=FIX50SP2|10=189|
20190521-11:06:03.000000000 : 8=FIXT.1.1|9=95|35=A|34=1|49=ORP_RESZ_B|52=20190521-11:06:03.000|56=BLPORPBETA|98=0|108=30|141=Y|1137=FIX50SP2|10=185|
20190521-11:06:13.000000000 : 8=FIXT.1.1|9=95|35=A|34=1|49=ORP_RESZ_B|52=20190521-11:06:13.000|56=BLPORPBETA|98=0|108=30|141=Y|1137=FIX50SP2|10=186|
20190521-11:06:23.000000000 : 8=FIXT.1.1|9=95|35=A|34=1|49=ORP_RESZ_B|52=20190521-11:06:23.000|56=BLPORPBETA|98=0|108=30|141=Y|1137=FIX50SP2|10=187|
20190521-11:06:33.000000000 : 8=FIXT.1.1|9=95|35=A|34=1|49=ORP_RESZ_B|52=20190521-11:06:33.000|56=BLPORPBETA|98=0|108=30|141=Y|1137=FIX50SP2|10=188|
20190521-11:06:42.000000000 : 8=FIXT.1.1|9=95|35=A|34=1|49=ORP_RESZ_B|52=20190521-11:06:42.000|56=BLPORPBETA|98=0|108=30|141=Y|1137=FIX50SP2|10=188|
20190521-11:06:52.000000000 : 8=FIXT.1.1|9=95|35=A|34=1|49=ORP_RESZ_B|52=20190521-11:06:52.000|56=BLPORPBETA|98=0|108=30|141=Y|1137=FIX50SP2|10=189|
20190521-11:07:02.000000000 : 8=FIXT.1.1|9=95|35=A|34=1|49=ORP_RESZ_B|52=20190521-11:07:02.000|56=BLPORPBETA|98=0|108=30|141=Y|1137=FIX50SP2|10=185|
20190521-11:07:12.000000000 : 8=FIXT.1.1|9=95|35=A|34=1|49=ORP_RESZ_B|52=20190521-11:07:12.000|56=BLPORPBETA|98=0|108=30|141=Y|1137=FIX50SP2|10=186|
20190521-11:07:22.000000000 : 8=FIXT.1.1|9=95|35=A|34=1|49=ORP_RESZ_B|52=20190521-11:07:22.000|56=BLPORPBETA|98=0|108=30|141=Y|1137=FIX50SP2|10=187|
20190521-11:07:32.000000000 : 8=FIXT.1.1|9=95|35=A|34=1|49=ORP_RESZ_B|52=20190521-11:07:32.000|56=BLPORPBETA|98=0|108=30|141=Y|1137=FIX50SP2|10=188|
20190521-11:07:42.000000000 : 8=FIXT.1.1|9=95|35=A|34=1|49=ORP_RESZ_B|52=20190521-11:07:42.000|56=BLPORPBETA|98=0|108=30|141=Y|1137=FIX50SP2|10=189|
20190521-11:07:52.000000000 : 8=FIXT.1.1|9=95|35=A|34=1|49=ORP_RESZ_B|52=20190521-11:07:52.000|56=BLPORPBETA|98=0|108=30|141=Y|1137=FIX50SP2|10=190|
20190521-11:08:02.000000000 : 8=FIXT.1.1|9=95|35=A|34=1|49=ORP_RESZ_B|52=20190521-11:08:02.000|56=BLPORPBETA|98=0|108=30|141=Y|1137=FIX50SP2|10=186|
20190521-11:08:12.000000000 : 8=FIXT.1.1|9=95|35=A|34=1|49=ORP_RESZ_B|52=20190521-11:08:12.000|56=BLPORPBETA|98=0|108=30|141=Y|1137=FIX50SP2|10=187|
20190521-11:08:19.000000000 : 8=FIXT.1.1|9=95|35=A|34=1|49=ORP_RESZ_B|52=20190521-11:08:19.000|56=BLPORPBETA|98=0|108=30|141=Y|1137=FIX50SP2|10=194|
20190521-11:08:30.000000000 : 8=FIXT.1.1|9=95|35=A|34=1|49=ORP_RESZ_B|52=20190521-11:08:30.000|56=BLPORPBETA|98=0|108=30|141=Y|1137=FIX50SP2|10=187|
20190521-11:08:40.000000000 : 8=FIXT.1.1|9=95|35=A|34=1|49=ORP_RESZ_B|52=20190521-11:08:40.000|56=BLPORPBETA|98=0|108=30|141=Y|1137=FIX50SP2|10=188|
20190521-11:08:50.000000000 : 8=FIXT.1.1|9=95|35=A|34=1|49=ORP_RESZ_B|52=20190521-11:08:50.000|56=BLPORPBETA|98=0|108=30|141=Y|1137=FIX50SP2|10=189|
20190521-11:09:00.000000000 : 8=FIXT.1.1|9=95|35=A|34=1|49=ORP_RESZ_B|52=20190521-11:09:00.000|56=BLPORPBETA|98=0|108=30|141=Y|1137=FIX50SP2|10=185|
20190521-11:09:10.000000000 : 8=FIXT.1.1|9=95|35=A|34=1|49=ORP_RESZ_B|52=20190521-11:09:10.000|56=BLPORPBETA|98=0|108=30|141=Y|1137=FIX50SP2|10=186|
20190521-11:09:20.000000000 : 8=FIXT.1.1|9=95|35=A|34=1|49=ORP_RESZ_B|52=20190521-11:09:20.000|56=BLPORPBETA|98=0|108=30|141=Y|1137=FIX50SP2|10=187|
20190521-11:09:30.000000000 : 8=FIXT.1.1|9=95|35=A|34=1|49=ORP_RESZ_B|52=20190521-11:09:30.000|56=BLPORPBETA|98=0|108=30|141=Y|1137=FIX50SP2|10=188|
20190521-11:09:40.000000000 : 8=FIXT.1.1|9=95|35=A|34=1|49=ORP_RESZ_B|52=20190521-11:09:40.000|56=BLPORPBETA|98=0|108=30|141=Y|1137=FIX50SP2|10=189|
20190521-11:09:50.000000000 : 8=FIXT.1.1|9=95|35=A|34=1|49=ORP_RESZ_B|52=20190521-11:09:50.000|56=BLPORPBETA|98=0|108=30|141=Y|1137=FIX50SP2|10=190|
20190521-11:10:00.000000000 : 8=FIXT.1.1|9=95|35=A|34=1|49=ORP_RESZ_B|52=20190521-11:10:00.000|56=BLPORPBETA|98=0|108=30|141=Y|1137=FIX50SP2|10=177|
20190521-11:10:10.000000000 : 8=FIXT.1.1|9=95|35=A|34=1|49=ORP_RESZ_B|52=20190521-11:10:10.000|56=BLPORPBETA|98=0|108=30|141=Y|1137=FIX50SP2|10=178|
20190521-11:10:19.000000000 : 8=FIXT.1.1|9=95|35=A|34=1|49=ORP_RESZ_B|52=20190521-11:10:19.000|56=BLPORPBETA|98=0|108=30|141=Y|1137=FIX50SP2|10=187|
20190521-11:10:29.000000000 : 8=FIXT.1.1|9=95|35=A|34=1|49=ORP_RESZ_B|52=20190521-11:10:29.000|56=BLPORPBETA|98=0|108=30|141=Y|1137=FIX50SP2|10=188|
20190521-11:10:39.000000000 : 8=FIXT.1.1|9=95|35=A|34=1|49=ORP_RESZ_B|52=20190521-11:10:39.000|56=BLPORPBETA|98=0|108=30|141=Y|1137=FIX50SP2|10=189|
20190521-11:10:51.000000000 : 8=FIXT.1.1|9=95|35=A|34=1|49=ORP_RESZ_B|52=20190521-11:10:51.000|56=BLPORPBETA|98=0|108=30|141=Y|1137=FIX50SP2|10=183|
20190521-11:11:01.000000000 : 8=FIXT.1.1|9=95|35=A|34=1|49=ORP_RESZ_B|52=20190521-11:11:01.000|56=BLPORPBETA|98=0|108=30|141=Y|1137=FIX50SP2|10=179|
20190521-11:11:11.000000000 : 8=FIXT.1.1|9=95|35=A|34=1|49=ORP_RESZ_B|52=20190521-11:11:11.000|56=BLPORPBETA|98=0|108=30|141=Y|1137=FIX50SP2|10=180|
20190521-11:11:21.000000000 : 8=FIXT.1.1|9=95|35=A|34=1|49=ORP_RESZ_B|52=20190521-11:11:21.000|56=BLPORPBETA|98=0|108=30|141=Y|1137=FIX50SP2|10=181|
20190521-11:11:32.000000000 : 8=FIXT.1.1|9=95|35=A|34=1|49=ORP_RESZ_B|52=20190521-11:11:32.000|56=BLPORPBETA|98=0|108=30|141=Y|1137=FIX50SP2|10=183|
20190521-11:11:43.000000000 : 8=FIXT.1.1|9=95|35=A|34=1|49=ORP_RESZ_B|52=20190521-11:11:43.000|56=BLPORPBETA|98=0|108=30|141=Y|1137=FIX50SP2|10=185|
20190521-11:11:53.000000000 : 8=FIXT.1.1|9=95|35=A|34=1|49=ORP_RESZ_B|52=20190521-11:11:53.000|56=BLPORPBETA|98=0|108=30|141=Y|1137=FIX50SP2|10=186|
20190521-11:12:03.000000000 : 8=FIXT.1.1|9=95|35=A|34=1|49=ORP_RESZ_B|52=20190521-11:12:03.000|56=BLPORPBETA|98=0|108=30|141=Y|1137=FIX50SP2|10=182|
20190521-11:12:13.000000000 : 8=FIXT.1.1|9=95|35=A|34=1|49=ORP_RESZ_B|52=20190521-11:12:13.000|56=BLPORPBETA|98=0|108=30|141=Y|1137=FIX50SP2|10=183|
20190521-11:12:23.000000000 : 8=FIXT.1.1|9=95|35=A|34=1|49=ORP_RESZ_B|52=20190521-11:12:23.000|56=BLPORPBETA|98=0|108=30|141=Y|1137=FIX50SP2|10=184|
20190521-11:12:32.000000000 : 8=FIXT.1.1|9=95|35=A|34=1|49=ORP_RESZ_B|52=20190521-11:12:32.000|56=BLPORPBETA|98=0|108=30|141=Y|1137=FIX50SP2|10=184|
20190521-11:12:42.000000000 : 8=FIXT.1.1|9=95|35=A|34=1|49=ORP_RESZ_B|52=20190521-11:12:42.000|56=BLPORPBETA|98=0|108=30|141=Y|1137=FIX50SP2|10=185|
20190521-11:12:52.000000000 : 8=FIXT.1.1|9=95|35=A|34=1|49=ORP_RESZ_B|52=20190521-11:12:52.000|56=BLPORPBETA|98=0|108=30|141=Y|1137=FIX50SP2|10=186|
20190521-11:13:02.000000000 : 8=FIXT.1.1|9=95|35=A|34=1|49=ORP_RESZ_B|52=20190521-11:13:02.000|56=BLPORPBETA|98=0|108=30|141=Y|1137=FIX50SP2|10=182|
20190521-11:13:12.000000000 : 8=FIXT.1.1|9=95|35=A|34=1|49=ORP_RESZ_B|52=20190521-11:13:12.000|56=BLPORPBETA|98=0|108=30|141=Y|1137=FIX50SP2|10=183|
20190521-11:13:22.000000000 : 8=FIXT.1.1|9=95|35=A|34=1|49=ORP_RESZ_B|52=20190521-11:13:22.000|56=BLPORPBETA|98=0|108=30|141=Y|1137=FIX50SP2|10=184|
20190521-11:13:28.000000000 : 8=FIXT.1.1|9=95|35=A|34=1|49=ORP_RESZ_B|52=20190521-11:13:28.000|56=BLPORPBETA|98=0|108=30|141=Y|1137=FIX50SP2|10=190|
20190521-11:13:38.000000000 : 8=FIXT.1.1|9=95|35=A|34=1|49=ORP_RESZ_B|52=20190521-11:13:38.000|56=BLPORPBETA|98=0|108=30|141=Y|1137=FIX50SP2|10=191|
20190521-11:13:48.000000000 : 8=FIXT.1.1|9=95|35=A|34=1|49=ORP_RESZ_B|52=20190521-11:13:48.000|56=BLPORPBETA|98=0|108=30|141=Y|1137=FIX50SP2|10=192|
20190521-11:13:58.000000000 : 8=FIXT.1.1|9=95|35=A|34=1|49=ORP_RESZ_B|52=20190521-11:13:58.000|56=BLPORPBETA|98=0|108=30|141=Y|1137=FIX50SP2|10=193|
20190521-11:14:08.000000000 : 8=FIXT.1.1|9=95|35=A|34=1|49=ORP_RESZ_B|52=20190521-11:14:08.000|56=BLPORPBETA|98=0|108=30|141=Y|1137=FIX50SP2|10=189|
20190521-11:14:18.000000000 : 8=FIXT.1.1|9=95|35=A|34=1|49=ORP_RESZ_B|52=20190521-11:14:18.000|56=BLPORPBETA|98=0|108=30|141=Y|1137=FIX50SP2|10=190|
20190521-11:14:28.000000000 : 8=FIXT.1.1|9=95|35=A|34=1|49=ORP_RESZ_B|52=20190521-11:14:28.000|56=BLPORPBETA|98=0|108=30|141=Y|1137=FIX50SP2|10=191|
20190521-11:14:38.000000000 : 8=FIXT.1.1|9=95|35=A|34=1|49=ORP_RESZ_B|52=20190521-11:14:38.000|56=BLPORPBETA|98=0|108=30|141=Y|1137=FIX50SP2|10=192|
20190521-11:14:48.000000000 : 8=FIXT.1.1|9=95|35=A|34=1|49=ORP_RESZ_B|52=20190521-11:14:48.000|56=BLPORPBETA|98=0|108=30|141=Y|1137=FIX50SP2|10=193|
20190521-11:14:58.000000000 : 8=FIXT.1.1|9=95|35=A|34=1|49=ORP_RESZ_B|52=20190521-11:14:58.000|56=BLPORPBETA|98=0|108=30|141=Y|1137=FIX50SP2|10=194|
20190521-11:15:08.000000000 : 8=FIXT.1.1|9=95|35=A|34=1|49=ORP_RESZ_B|52=20190521-11:15:08.000|56=BLPORPBETA|98=0|108=30|141=Y|1137=FIX50SP2|10=190|
20190521-11:15:18.000000000 : 8=FIXT.1.1|9=95|35=A|34=1|49=ORP_RESZ_B|52=20190521-11:15:18.000|56=BLPORPBETA|98=0|108=30|141=Y|1137=FIX50SP2|10=191|
20190521-11:15:29.000000000 : 8=FIXT.1.1|9=95|35=A|34=1|49=ORP_RESZ_B|52=20190521-11:15:29.000|56=BLPORPBETA|98=0|108=30|141=Y|1137=FIX50SP2|10=193|
20190521-11:15:38.000000000 : 8=FIXT.1.1|9=95|35=A|34=1|49=ORP_RESZ_B|52=20190521-11:15:38.000|56=BLPORPBETA|98=0|108=30|141=Y|1137=FIX50SP2|10=193|
20190521-11:15:48.000000000 : 8=FIXT.1.1|9=95|35=A|34=1|49=ORP_RESZ_B|52=20190521-11:15:48.000|56=BLPORPBETA|98=0|108=30|141=Y|1137=FIX50SP2|10=194|
20190521-11:15:58.000000000 : 8=FIXT.1.1|9=95|35=A|34=1|49=ORP_RESZ_B|52=20190521-11:15:58.000|56=BLPORPBETA|98=0|108=30|141=Y|1137=FIX50SP2|10=195|
20190521-11:16:08.000000000 : 8=FIXT.1.1|9=95|35=A|34=1|49=ORP_RESZ_B|52=20190521-11:16:08.000|56=BLPORPBETA|98=0|108=30|141=Y|1137=FIX50SP2|10=191|
20190521-11:16:18.000000000 : 8=FIXT.1.1|9=95|35=A|34=1|49=ORP_RESZ_B|52=20190521-11:16:18.000|56=BLPORPBETA|98=0|108=30|141=Y|1137=FIX50SP2|10=192|
20190521-11:16:28.000000000 : 8=FIXT.1.1|9=95|35=A|34=1|49=ORP_RESZ_B|52=20190521-11:16:28.000|56=BLPORPBETA|98=0|108=30|141=Y|1137=FIX50SP2|10=193|
20190521-11:16:38.000000000 : 8=FIXT.1.1|9=95|35=A|34=1|49=ORP_RESZ_B|52=20190521-11:16:38.000|56=BLPORPBETA|98=0|108=30|141=Y|1137=FIX50SP2|10=194|
20190521-11:16:48.000000000 : 8=FIXT.1.1|9=95|35=A|34=1|49=ORP_RESZ_B|52=20190521-11:16:48.000|56=BLPORPBETA|98=0|108=30|141=Y|1137=FIX50SP2|10=195|
20190521-11:16:58.000000000 : 8=FIXT.1.1|9=95|35=A|34=1|49=ORP_RESZ_B|52=20190521-11:16:58.000|56=BLPORPBETA|98=0|108=30|141=Y|1137=FIX50SP2|10=196|
20190521-11:17:08.000000000 : 8=FIXT.1.1|9=95|35=A|34=1|49=ORP_RESZ_B|52=20190521-11:17:08.000|56=BLPORPBETA|98=0|108=30|141=Y|1137=FIX50SP2|10=192|
20190521-11:17:18.000000000 : 8=FIXT.1.1|9=95|35=A|34=1|49=ORP_RESZ_B|52=20190521-11:17:18.000|56=BLPORPBETA|98=0|108=30|141=Y|1137=FIX50SP2|10=193|
20190521-11:17:28.000000000 : 8=FIXT.1.1|9=95|35=A|34=1|49=ORP_RESZ_B|52=20190521-11:17:28.000|56=BLPORPBETA|98=0|108=30|141=Y|1137=FIX50SP2|10=194|
20190521-11:17:38.000000000 : 8=FIXT.1.1|9=95|35=A|34=1|49=ORP_RESZ_B|52=20190521-11:17:38.000|56=BLPORPBETA|98=0|108=30|141=Y|1137=FIX50SP2|10=195|
20190521-11:17:48.000000000 : 8=FIXT.1.1|9=95|35=A|34=1|49=ORP_RESZ_B|52=20190521-11:17:48.000|56=BLPORPBETA|98=0|108=30|141=Y|1137=FIX50SP2|10=196|
20190521-11:17:58.000000000 : 8=FIXT.1.1|9=95|35=A|34=1|49=ORP_RESZ_B|52=20190521-11:17:58.000|56=BLPORPBETA|98=0|108=30|141=Y|1137=FIX50SP2|10=197|
20190521-11:18:03.000000000 : 8=FIXT.1.1|9=95|35=A|34=1|49=ORP_RESZ_B|52=20190521-11:18:03.000|56=BLPORPBETA|98=0|108=30|141=Y|1137=FIX50SP2|10=188|
20190521-11:18:13.000000000 : 8=FIXT.1.1|9=95|35=A|34=1|49=ORP_RESZ_B|52=20190521-11:18:13.000|56=BLPORPBETA|98=0|108=30|141=Y|1137=FIX50SP2|10=189|
20190521-11:18:23.000000000 : 8=FIXT.1.1|9=95|35=A|34=1|49=ORP_RESZ_B|52=20190521-11:18:23.000|56=BLPORPBETA|98=0|108=30|141=Y|1137=FIX50SP2|10=190|
20190521-11:18:33.000000000 : 8=FIXT.1.1|9=95|35=A|34=1|49=ORP_RESZ_B|52=20190521-11:18:33.000|56=BLPORPBETA|98=0|108=30|141=Y|1137=FIX50SP2|10=191|
20190521-11:18:43.000000000 : 8=FIXT.1.1|9=95|35=A|34=1|49=ORP_RESZ_B|52=20190521-11:18:43.000|56=BLPORPBETA|98=0|108=30|141=Y|1137=FIX50SP2|10=192|
20190521-11:18:53.000000000 : 8=FIXT.1.1|9=95|35=A|34=1|49=ORP_RESZ_B|52=20190521-11:18:53.000|56=BLPORPBETA|98=0|108=30|141=Y|1137=FIX50SP2|10=193|
20190521-11:19:03.000000000 : 8=FIXT.1.1|9=95|35=A|34=1|49=ORP_RESZ_B|52=20190521-11:19:03.000|56=BLPORPBETA|98=0|108=30|141=Y|1137=FIX50SP2|10=189|
20190521-11:19:13.000000000 : 8=FIXT.1.1|9=95|35=A|34=1|49=ORP_RESZ_B|52=20190521-11:19:13.000|56=BLPORPBETA|98=0|108=30|141=Y|1137=FIX50SP2|10=190|
20190521-11:19:23.000000000 : 8=FIXT.1.1|9=95|35=A|34=1|49=ORP_RESZ_B|52=20190521-11:19:23.000|56=BLPORPBETA|98=0|108=30|141=Y|1137=FIX50SP2|10=191|
20190521-11:19:33.000000000 : 8=FIXT.1.1|9=95|35=A|34=1|49=ORP_RESZ_B|52=20190521-11:19:33.000|56=BLPORPBETA|98=0|108=30|141=Y|1137=FIX50SP2|10=192|
20190521-11:19:43.000000000 : 8=FIXT.1.1|9=95|35=A|34=1|49=ORP_RESZ_B|52=20190521-11:19:43.000|56=BLPORPBETA|98=0|108=30|141=Y|1137=FIX50SP2|10=193|
20190521-11:19:53.000000000 : 8=FIXT.1.1|9=95|35=A|34=1|49=ORP_RESZ_B|52=20190521-11:19:53.000|56=BLPORPBETA|98=0|108=30|141=Y|1137=FIX50SP2|10=194|
20190521-11:20:03.000000000 : 8=FIXT.1.1|9=95|35=A|34=1|49=ORP_RESZ_B|52=20190521-11:20:03.000|56=BLPORPBETA|98=0|108=30|141=Y|1137=FIX50SP2|10=181|
20190521-11:20:13.000000000 : 8=FIXT.1.1|9=95|35=A|34=1|49=ORP_RESZ_B|52=20190521-11:20:13.000|56=BLPORPBETA|98=0|108=30|141=Y|1137=FIX50SP2|10=182|
20190521-11:20:23.000000000 : 8=FIXT.1.1|9=95|35=A|34=1|49=ORP_RESZ_B|52=20190521-11:20:23.000|56=BLPORPBETA|98=0|108=30|141=Y|1137=FIX50SP2|10=183|
20190521-11:20:33.000000000 : 8=FIXT.1.1|9=95|35=A|34=1|49=ORP_RESZ_B|52=20190521-11:20:33.000|56=BLPORPBETA|98=0|108=30|141=Y|1137=FIX50SP2|10=184|
20190521-11:20:43.000000000 : 8=FIXT.1.1|9=95|35=A|34=1|49=ORP_RESZ_B|52=20190521-11:20:43.000|56=BLPORPBETA|98=0|108=30|141=Y|1137=FIX50SP2|10=185|
20190521-11:20:53.000000000 : 8=FIXT.1.1|9=95|35=A|34=1|49=ORP_RESZ_B|52=20190521-11:20:53.000|56=BLPORPBETA|98=0|108=30|141=Y|1137=FIX50SP2|10=186|
20190521-11:21:03.000000000 : 8=FIXT.1.1|9=95|35=A|34=1|49=ORP_RESZ_B|52=20190521-11:21:03.000|56=BLPORPBETA|98=0|108=30|141=Y|1137=FIX50SP2|10=182|
20190521-11:21:13.000000000 : 8=FIXT.1.1|9=95|35=A|34=1|49=ORP_RESZ_B|52=20190521-11:21:13.000|56=BLPORPBETA|98=0|108=30|141=Y|1137=FIX50SP2|10=183|
20190521-11:21:23.000000000 : 8=FIXT.1.1|9=95|35=A|34=1|49=ORP_RESZ_B|52=20190521-11:21:23.000|56=BLPORPBETA|98=0|108=30|141=Y|1137=FIX50SP2|10=184|
20190521-11:21:33.000000000 : 8=FIXT.1.1|9=95|35=A|34=1|49=ORP_RESZ_B|52=20190521-11:21:33.000|56=BLPORPBETA|98=0|108=30|141=Y|1137=FIX50SP2|10=185|
20190521-11:21:43.000000000 : 8=FIXT.1.1|9=95|35=A|34=1|49=ORP_RESZ_B|52=20190521-11:21:43.000|56=BLPORPBETA|98=0|108=30|141=Y|1137=FIX50SP2|10=186|
20190521-11:21:53.000000000 : 8=FIXT.1.1|9=95|35=A|34=1|49=ORP_RESZ_B|52=20190521-11:21:53.000|56=BLPORPBETA|98=0|108=30|141=Y|1137=FIX50SP2|10=187|
20190521-11:22:03.000000000 : 8=FIXT.1.1|9=95|35=A|34=1|49=ORP_RESZ_B|52=20190521-11:22:03.000|56=BLPORPBETA|98=0|108=30|141=Y|1137=FIX50SP2|10=183|
20190521-11:22:13.000000000 : 8=FIXT.1.1|9=95|35=A|34=1|49=ORP_RESZ_B|52=20190521-11:22:13.000|56=BLPORPBETA|98=0|108=30|141=Y|1137=FIX50SP2|10=184|
20190521-11:22:23.000000000 : 8=FIXT.1.1|9=95|35=A|34=1|49=ORP_RESZ_B|52=20190521-11:22:23.000|56=BLPORPBETA|98=0|108=30|141=Y|1137=FIX50SP2|10=185|
20190521-11:22:33.000000000 : 8=FIXT.1.1|9=95|35=A|34=1|49=ORP_RESZ_B|52=20190521-11:22:33.000|56=BLPORPBETA|98=0|108=30|141=Y|1137=FIX50SP2|10=186|
20190521-11:22:43.000000000 : 8=FIXT.1.1|9=95|35=A|34=1|49=ORP_RESZ_B|52=20190521-11:22:43.000|56=BLPORPBETA|98=0|108=30|141=Y|1137=FIX50SP2|10=187|
20190521-11:22:53.000000000 : 8=FIXT.1.1|9=95|35=A|34=1|49=ORP_RESZ_B|52=20190521-11:22:53.000|56=BLPORPBETA|98=0|108=30|141=Y|1137=FIX50SP2|10=188|
20190521-11:23:03.000000000 : 8=FIXT.1.1|9=95|35=A|34=1|49=ORP_RESZ_B|52=20190521-11:23:03.000|56=BLPORPBETA|98=0|108=30|141=Y|1137=FIX50SP2|10=184|
20190521-11:23:13.000000000 : 8=FIXT.1.1|9=95|35=A|34=1|49=ORP_RESZ_B|52=20190521-11:23:13.000|56=BLPORPBETA|98=0|108=30|141=Y|1137=FIX50SP2|10=185|
20190521-11:23:23.000000000 : 8=FIXT.1.1|9=95|35=A|34=1|49=ORP_RESZ_B|52=20190521-11:23:23.000|56=BLPORPBETA|98=0|108=30|141=Y|1137=FIX50SP2|10=186|
20190521-11:23:33.000000000 : 8=FIXT.1.1|9=95|35=A|34=1|49=ORP_RESZ_B|52=20190521-11:23:33.000|56=BLPORPBETA|98=0|108=30|141=Y|1137=FIX50SP2|10=187|
20190521-11:23:43.000000000 : 8=FIXT.1.1|9=95|35=A|34=1|49=ORP_RESZ_B|52=20190521-11:23:43.000|56=BLPORPBETA|98=0|108=30|141=Y|1137=FIX50SP2|10=188|
20190521-11:23:53.000000000 : 8=FIXT.1.1|9=95|35=A|34=1|49=ORP_RESZ_B|52=20190521-11:23:53.000|56=BLPORPBETA|98=0|108=30|141=Y|1137=FIX50SP2|10=189|
20190521-11:24:03.000000000 : 8=FIXT.1.1|9=95|35=A|34=1|49=ORP_RESZ_B|52=20190521-11:24:03.000|56=BLPORPBETA|98=0|108=30|141=Y|1137=FIX50SP2|10=185|
20190521-11:24:13.000000000 : 8=FIXT.1.1|9=95|35=A|34=1|49=ORP_RESZ_B|52=20190521-11:24:13.000|56=BLPORPBETA|98=0|108=30|141=Y|1137=FIX50SP2|10=186|
20190521-11:24:23.000000000 : 8=FIXT.1.1|9=95|35=A|34=1|49=ORP_RESZ_B|52=20190521-11:24:23.000|56=BLPORPBETA|98=0|108=30|141=Y|1137=FIX50SP2|10=187|
20190521-11:24:33.000000000 : 8=FIXT.1.1|9=95|35=A|34=1|49=ORP_RESZ_B|52=20190521-11:24:33.000|56=BLPORPBETA|98=0|108=30|141=Y|1137=FIX50SP2|10=188|
20190521-11:24:43.000000000 : 8=FIXT.1.1|9=95|35=A|34=1|49=ORP_RESZ_B|52=20190521-11:24:43.000|56=BLPORPBETA|98=0|108=30|141=Y|1137=FIX50SP2|10=189|
20190521-11:24:53.000000000 : 8=FIXT.1.1|9=95|35=A|34=1|49=ORP_RESZ_B|52=20190521-11:24:53.000|56=BLPORPBETA|98=0|108=30|141=Y|1137=FIX50SP2|10=190|
20190521-11:25:03.000000000 : 8=FIXT.1.1|9=95|35=A|34=1|49=ORP_RESZ_B|52=20190521-11:25:03.000|56=BLPORPBETA|98=0|108=30|141=Y|1137=FIX50SP2|10=186|
20190521-11:25:13.000000000 : 8=FIXT.1.1|9=95|35=A|34=1|49=ORP_RESZ_B|52=20190521-11:25:13.000|56=BLPORPBETA|98=0|108=30|141=Y|1137=FIX50SP2|10=187|
20190521-11:25:23.000000000 : 8=FIXT.1.1|9=95|35=A|34=1|49=ORP_RESZ_B|52=20190521-11:25:23.000|56=BLPORPBETA|98=0|108=30|141=Y|1137=FIX50SP2|10=188|
20190521-11:25:33.000000000 : 8=FIXT.1.1|9=95|35=A|34=1|49=ORP_RESZ_B|52=20190521-11:25:33.000|56=BLPORPBETA|98=0|108=30|141=Y|1137=FIX50SP2|10=189|
20190521-11:25:43.000000000 : 8=FIXT.1.1|9=95|35=A|34=1|49=ORP_RESZ_B|52=20190521-11:25:43.000|56=BLPORPBETA|98=0|108=30|141=Y|1137=FIX50SP2|10=190|
20190521-11:25:53.000000000 : 8=FIXT.1.1|9=95|35=A|34=1|49=ORP_RESZ_B|52=20190521-11:25:53.000|56=BLPORPBETA|98=0|108=30|141=Y|1137=FIX50SP2|10=191|
20190521-11:26:03.000000000 : 8=FIXT.1.1|9=95|35=A|34=1|49=ORP_RESZ_B|52=20190521-11:26:03.000|56=BLPORPBETA|98=0|108=30|141=Y|1137=FIX50SP2|10=187|
20190521-11:26:13.000000000 : 8=FIXT.1.1|9=95|35=A|34=1|49=ORP_RESZ_B|52=20190521-11:26:13.000|56=BLPORPBETA|98=0|108=30|141=Y|1137=FIX50SP2|10=188|
20190521-11:26:23.000000000 : 8=FIXT.1.1|9=95|35=A|34=1|49=ORP_RESZ_B|52=20190521-11:26:23.000|56=BLPORPBETA|98=0|108=30|141=Y|1137=FIX50SP2|10=189|
20190521-11:26:33.000000000 : 8=FIXT.1.1|9=95|35=A|34=1|49=ORP_RESZ_B|52=20190521-11:26:33.000|56=BLPORPBETA|98=0|108=30|141=Y|1137=FIX50SP2|10=190|
20190521-11:26:43.000000000 : 8=FIXT.1.1|9=95|35=A|34=1|49=ORP_RESZ_B|52=20190521-11:26:43.000|56=BLPORPBETA|98=0|108=30|141=Y|1137=FIX50SP2|10=191|
20190521-11:26:53.000000000 : 8=FIXT.1.1|9=95|35=A|34=1|49=ORP_RESZ_B|52=20190521-11:26:53.000|56=BLPORPBETA|98=0|108=30|141=Y|1137=FIX50SP2|10=192|
20190521-11:27:03.000000000 : 8=FIXT.1.1|9=95|35=A|34=1|49=ORP_RESZ_B|52=20190521-11:27:03.000|56=BLPORPBETA|98=0|108=30|141=Y|1137=FIX50SP2|10=188|
20190521-11:27:13.000000000 : 8=FIXT.1.1|9=95|35=A|34=1|49=ORP_RESZ_B|52=20190521-11:27:13.000|56=BLPORPBETA|98=0|108=30|141=Y|1137=FIX50SP2|10=189|
20190521-11:27:23.000000000 : 8=FIXT.1.1|9=95|35=A|34=1|49=ORP_RESZ_B|52=20190521-11:27:23.000|56=BLPORPBETA|98=0|108=30|141=Y|1137=FIX50SP2|10=190|
20190521-11:27:33.000000000 : 8=FIXT.1.1|9=95|35=A|34=1|49=ORP_RESZ_B|52=20190521-11:27:33.000|56=BLPORPBETA|98=0|108=30|141=Y|1137=FIX50SP2|10=191|
20190521-11:27:43.000000000 : 8=FIXT.1.1|9=95|35=A|34=1|49=ORP_RESZ_B|52=20190521-11:27:43.000|56=BLPORPBETA|98=0|108=30|141=Y|1137=FIX50SP2|10=192|
20190521-11:27:53.000000000 : 8=FIXT.1.1|9=95|35=A|34=1|49=ORP_RESZ_B|52=20190521-11:27:53.000|56=BLPORPBETA|98=0|108=30|141=Y|1137=FIX50SP2|10=193|
20190521-11:28:03.000000000 : 8=FIXT.1.1|9=95|35=A|34=1|49=ORP_RESZ_B|52=20190521-11:28:03.000|56=BLPORPBETA|98=0|108=30|141=Y|1137=FIX50SP2|10=189|
20190521-11:28:13.000000000 : 8=FIXT.1.1|9=95|35=A|34=1|49=ORP_RESZ_B|52=20190521-11:28:13.000|56=BLPORPBETA|98=0|108=30|141=Y|1137=FIX50SP2|10=190|
20190521-11:28:23.000000000 : 8=FIXT.1.1|9=95|35=A|34=1|49=ORP_RESZ_B|52=20190521-11:28:23.000|56=BLPORPBETA|98=0|108=30|141=Y|1137=FIX50SP2|10=191|
20190521-11:28:33.000000000 : 8=FIXT.1.1|9=95|35=A|34=1|49=ORP_RESZ_B|52=20190521-11:28:33.000|56=BLPORPBETA|98=0|108=30|141=Y|1137=FIX50SP2|10=192|
20190521-11:28:43.000000000 : 8=FIXT.1.1|9=95|35=A|34=1|49=ORP_RESZ_B|52=20190521-11:28:43.000|56=BLPORPBETA|98=0|108=30|141=Y|1137=FIX50SP2|10=193|
20190521-11:28:53.000000000 : 8=FIXT.1.1|9=95|35=A|34=1|49=ORP_RESZ_B|52=20190521-11:28:53.000|56=BLPORPBETA|98=0|108=30|141=Y|1137=FIX50SP2|10=194|
20190521-11:29:03.000000000 : 8=FIXT.1.1|9=95|35=A|34=1|49=ORP_RESZ_B|52=20190521-11:29:03.000|56=BLPORPBETA|98=0|108=30|141=Y|1137=FIX50SP2|10=190|
20190521-11:29:13.000000000 : 8=FIXT.1.1|9=95|35=A|34=1|49=ORP_RESZ_B|52=20190521-11:29:13.000|56=BLPORPBETA|98=0|108=30|141=Y|1137=FIX50SP2|10=191|
20190521-11:29:23.000000000 : 8=FIXT.1.1|9=95|35=A|34=1|49=ORP_RESZ_B|52=20190521-11:29:23.000|56=BLPORPBETA|98=0|108=30|141=Y|1137=FIX50SP2|10=192|
20190521-11:29:33.000000000 : 8=FIXT.1.1|9=95|35=A|34=1|49=ORP_RESZ_B|52=20190521-11:29:33.000|56=BLPORPBETA|98=0|108=30|141=Y|1137=FIX50SP2|10=193|
20190521-11:29:43.000000000 : 8=FIXT.1.1|9=95|35=A|34=1|49=ORP_RESZ_B|52=20190521-11:29:43.000|56=BLPORPBETA|98=0|108=30|141=Y|1137=FIX50SP2|10=194|
20190521-11:29:53.000000000 : 8=FIXT.1.1|9=95|35=A|34=1|49=ORP_RESZ_B|52=20190521-11:29:53.000|56=BLPORPBETA|98=0|108=30|141=Y|1137=FIX50SP2|10=195|
20190521-11:30:03.000000000 : 8=FIXT.1.1|9=95|35=A|34=1|49=ORP_RESZ_B|52=20190521-11:30:03.000|56=BLPORPBETA|98=0|108=30|141=Y|1137=FIX50SP2|10=182|
20190521-11:30:13.000000000 : 8=FIXT.1.1|9=95|35=A|34=1|49=ORP_RESZ_B|52=20190521-11:30:13.000|56=BLPORPBETA|98=0|108=30|141=Y|1137=FIX50SP2|10=183|
20190521-11:30:23.000000000 : 8=FIXT.1.1|9=95|35=A|34=1|49=ORP_RESZ_B|52=20190521-11:30:23.000|56=BLPORPBETA|98=0|108=30|141=Y|1137=FIX50SP2|10=184|
20190521-11:30:33.000000000 : 8=FIXT.1.1|9=95|35=A|34=1|49=ORP_RESZ_B|52=20190521-11:30:33.000|56=BLPORPBETA|98=0|108=30|141=Y|1137=FIX50SP2|10=185|
20190521-11:30:43.000000000 : 8=FIXT.1.1|9=95|35=A|34=1|49=ORP_RESZ_B|52=20190521-11:30:43.000|56=BLPORPBETA|98=0|108=30|141=Y|1137=FIX50SP2|10=186|
20190521-11:30:53.000000000 : 8=FIXT.1.1|9=95|35=A|34=1|49=ORP_RESZ_B|52=20190521-11:30:53.000|56=BLPORPBETA|98=0|108=30|141=Y|1137=FIX50SP2|10=187|
20190521-11:31:03.000000000 : 8=FIXT.1.1|9=95|35=A|34=1|49=ORP_RESZ_B|52=20190521-11:31:03.000|56=BLPORPBETA|98=0|108=30|141=Y|1137=FIX50SP2|10=183|
20190521-11:31:13.000000000 : 8=FIXT.1.1|9=95|35=A|34=1|49=ORP_RESZ_B|52=20190521-11:31:13.000|56=BLPORPBETA|98=0|108=30|141=Y|1137=FIX50SP2|10=184|
20190521-11:31:23.000000000 : 8=FIXT.1.1|9=95|35=A|34=1|49=ORP_RESZ_B|52=20190521-11:31:23.000|56=BLPORPBETA|98=0|108=30|141=Y|1137=FIX50SP2|10=185|
20190521-11:31:33.000000000 : 8=FIXT.1.1|9=95|35=A|34=1|49=ORP_RESZ_B|52=20190521-11:31:33.000|56=BLPORPBETA|98=0|108=30|141=Y|1137=FIX50SP2|10=186|
20190521-11:31:43.000000000 : 8=FIXT.1.1|9=95|35=A|34=1|49=ORP_RESZ_B|52=20190521-11:31:43.000|56=BLPORPBETA|98=0|108=30|141=Y|1137=FIX50SP2|10=187|
20190521-11:31:53.000000000 : 8=FIXT.1.1|9=95|35=A|34=1|49=ORP_RESZ_B|52=20190521-11:31:53.000|56=BLPORPBETA|98=0|108=30|141=Y|1137=FIX50SP2|10=188|
20190521-11:32:03.000000000 : 8=FIXT.1.1|9=95|35=A|34=1|49=ORP_RESZ_B|52=20190521-11:32:03.000|56=BLPORPBETA|98=0|108=30|141=Y|1137=FIX50SP2|10=184|
20190521-11:32:13.000000000 : 8=FIXT.1.1|9=95|35=A|34=1|49=ORP_RESZ_B|52=20190521-11:32:13.000|56=BLPORPBETA|98=0|108=30|141=Y|1137=FIX50SP2|10=185|
20190521-11:32:23.000000000 : 8=FIXT.1.1|9=95|35=A|34=1|49=ORP_RESZ_B|52=20190521-11:32:23.000|56=BLPORPBETA|98=0|108=30|141=Y|1137=FIX50SP2|10=186|
20190521-11:32:33.000000000 : 8=FIXT.1.1|9=95|35=A|34=1|49=ORP_RESZ_B|52=20190521-11:32:33.000|56=BLPORPBETA|98=0|108=30|141=Y|1137=FIX50SP2|10=187|
20190521-11:32:43.000000000 : 8=FIXT.1.1|9=95|35=A|34=1|49=ORP_RESZ_B|52=20190521-11:32:43.000|56=BLPORPBETA|98=0|108=30|141=Y|1137=FIX50SP2|10=188|
20190521-11:32:53.000000000 : 8=FIXT.1.1|9=95|35=A|34=1|49=ORP_RESZ_B|52=20190521-11:32:53.000|56=BLPORPBETA|98=0|108=30|141=Y|1137=FIX50SP2|10=189|
20190521-11:33:03.000000000 : 8=FIXT.1.1|9=95|35=A|34=1|49=ORP_RESZ_B|52=20190521-11:33:03.000|56=BLPORPBETA|98=0|108=30|141=Y|1137=FIX50SP2|10=185|
20190521-11:33:14.000000000 : 8=FIXT.1.1|9=95|35=A|34=1|49=ORP_RESZ_B|52=20190521-11:33:14.000|56=BLPORPBETA|98=0|108=30|141=Y|1137=FIX50SP2|10=187|
20190521-11:33:23.000000000 : 8=FIXT.1.1|9=95|35=A|34=1|49=ORP_RESZ_B|52=20190521-11:33:23.000|56=BLPORPBETA|98=0|108=30|141=Y|1137=FIX50SP2|10=187|
20190521-11:33:34.000000000 : 8=FIXT.1.1|9=95|35=A|34=1|49=ORP_RESZ_B|52=20190521-11:33:33.000|56=BLPORPBETA|98=0|108=30|141=Y|1137=FIX50SP2|10=188|
20190521-11:33:44.000000000 : 8=FIXT.1.1|9=95|35=A|34=1|49=ORP_RESZ_B|52=20190521-11:33:43.000|56=BLPORPBETA|98=0|108=30|141=Y|1137=FIX50SP2|10=189|
20190521-11:33:54.000000000 : 8=FIXT.1.1|9=95|35=A|34=1|49=ORP_RESZ_B|52=20190521-11:33:53.000|56=BLPORPBETA|98=0|108=30|141=Y|1137=FIX50SP2|10=190|
20190521-11:34:04.000000000 : 8=FIXT.1.1|9=95|35=A|34=1|49=ORP_RESZ_B|52=20190521-11:34:03.000|56=BLPORPBETA|98=0|108=30|141=Y|1137=FIX50SP2|10=186|
20190521-11:34:14.000000000 : 8=FIXT.1.1|9=95|35=A|34=1|49=ORP_RESZ_B|52=20190521-11:34:14.000|56=BLPORPBETA|98=0|108=30|141=Y|1137=FIX50SP2|10=188|
20190521-11:34:24.000000000 : 8=FIXT.1.1|9=95|35=A|34=1|49=ORP_RESZ_B|52=20190521-11:34:24.000|56=BLPORPBETA|98=0|108=30|141=Y|1137=FIX50SP2|10=189|
20190521-11:34:34.000000000 : 8=FIXT.1.1|9=95|35=A|34=1|49=ORP_RESZ_B|52=20190521-11:34:34.000|56=BLPORPBETA|98=0|108=30|141=Y|1137=FIX50SP2|10=190|
20190521-11:34:44.000000000 : 8=FIXT.1.1|9=95|35=A|34=1|49=ORP_RESZ_B|52=20190521-11:34:44.000|56=BLPORPBETA|98=0|108=30|141=Y|1137=FIX50SP2|10=191|
20190521-11:34:54.000000000 : 8=FIXT.1.1|9=95|35=A|34=1|49=ORP_RESZ_B|52=20190521-11:34:54.000|56=BLPORPBETA|98=0|108=30|141=Y|1137=FIX50SP2|10=192|
20190521-11:35:04.000000000 : 8=FIXT.1.1|9=95|35=A|34=1|49=ORP_RESZ_B|52=20190521-11:35:04.000|56=BLPORPBETA|98=0|108=30|141=Y|1137=FIX50SP2|10=188|
20190521-11:35:14.000000000 : 8=FIXT.1.1|9=95|35=A|34=1|49=ORP_RESZ_B|52=20190521-11:35:14.000|56=BLPORPBETA|98=0|108=30|141=Y|1137=FIX50SP2|10=189|
20190521-11:35:24.000000000 : 8=FIXT.1.1|9=95|35=A|34=1|49=ORP_RESZ_B|52=20190521-11:35:24.000|56=BLPORPBETA|98=0|108=30|141=Y|1137=FIX50SP2|10=190|
20190521-11:35:34.000000000 : 8=FIXT.1.1|9=95|35=A|34=1|49=ORP_RESZ_B|52=20190521-11:35:34.000|56=BLPORPBETA|98=0|108=30|141=Y|1137=FIX50SP2|10=191|
20190521-11:35:44.000000000 : 8=FIXT.1.1|9=95|35=A|34=1|49=ORP_RESZ_B|52=20190521-11:35:44.000|56=BLPORPBETA|98=0|108=30|141=Y|1137=FIX50SP2|10=192|
20190521-11:35:54.000000000 : 8=FIXT.1.1|9=95|35=A|34=1|49=ORP_RESZ_B|52=20190521-11:35:54.000|56=BLPORPBETA|98=0|108=30|141=Y|1137=FIX50SP2|10=193|
20190521-11:36:04.000000000 : 8=FIXT.1.1|9=95|35=A|34=1|49=ORP_RESZ_B|52=20190521-11:36:04.000|56=BLPORPBETA|98=0|108=30|141=Y|1137=FIX50SP2|10=189|
20190521-11:36:14.000000000 : 8=FIXT.1.1|9=95|35=A|34=1|49=ORP_RESZ_B|52=20190521-11:36:14.000|56=BLPORPBETA|98=0|108=30|141=Y|1137=FIX50SP2|10=190|
20190521-11:36:24.000000000 : 8=FIXT.1.1|9=95|35=A|34=1|49=ORP_RESZ_B|52=20190521-11:36:24.000|56=BLPORPBETA|98=0|108=30|141=Y|1137=FIX50SP2|10=191|
20190521-11:36:34.000000000 : 8=FIXT.1.1|9=95|35=A|34=1|49=ORP_RESZ_B|52=20190521-11:36:34.000|56=BLPORPBETA|98=0|108=30|141=Y|1137=FIX50SP2|10=192|
20190521-11:36:44.000000000 : 8=FIXT.1.1|9=95|35=A|34=1|49=ORP_RESZ_B|52=20190521-11:36:44.000|56=BLPORPBETA|98=0|108=30|141=Y|1137=FIX50SP2|10=193|
20190521-11:36:54.000000000 : 8=FIXT.1.1|9=95|35=A|34=1|49=ORP_RESZ_B|52=20190521-11:36:54.000|56=BLPORPBETA|98=0|108=30|141=Y|1137=FIX50SP2|10=194|
20190521-11:37:04.000000000 : 8=FIXT.1.1|9=95|35=A|34=1|49=ORP_RESZ_B|52=20190521-11:37:04.000|56=BLPORPBETA|98=0|108=30|141=Y|1137=FIX50SP2|10=190|
20190521-11:37:14.000000000 : 8=FIXT.1.1|9=95|35=A|34=1|49=ORP_RESZ_B|52=20190521-11:37:14.000|56=BLPORPBETA|98=0|108=30|141=Y|1137=FIX50SP2|10=191|
20190521-11:37:24.000000000 : 8=FIXT.1.1|9=95|35=A|34=1|49=ORP_RESZ_B|52=20190521-11:37:24.000|56=BLPORPBETA|98=0|108=30|141=Y|1137=FIX50SP2|10=192|
20190521-11:37:34.000000000 : 8=FIXT.1.1|9=95|35=A|34=1|49=ORP_RESZ_B|52=20190521-11:37:34.000|56=BLPORPBETA|98=0|108=30|141=Y|1137=FIX50SP2|10=193|
20190521-11:37:44.000000000 : 8=FIXT.1.1|9=95|35=A|34=1|49=ORP_RESZ_B|52=20190521-11:37:44.000|56=BLPORPBETA|98=0|108=30|141=Y|1137=FIX50SP2|10=194|
20190521-11:37:54.000000000 : 8=FIXT.1.1|9=95|35=A|34=1|49=ORP_RESZ_B|52=20190521-11:37:54.000|56=BLPORPBETA|98=0|108=30|141=Y|1137=FIX50SP2|10=195|
20190521-11:38:04.000000000 : 8=FIXT.1.1|9=95|35=A|34=1|49=ORP_RESZ_B|52=20190521-11:38:04.000|56=BLPORPBETA|98=0|108=30|141=Y|1137=FIX50SP2|10=191|
20190521-11:38:13.000000000 : 8=FIXT.1.1|9=95|35=A|34=1|49=ORP_RESZ_B|52=20190521-11:38:13.000|56=BLPORPBETA|98=0|108=30|141=Y|1137=FIX50SP2|10=191|
20190521-11:38:23.000000000 : 8=FIXT.1.1|9=95|35=A|34=1|49=ORP_RESZ_B|52=20190521-11:38:23.000|56=BLPORPBETA|98=0|108=30|141=Y|1137=FIX50SP2|10=192|
20190521-11:38:33.000000000 : 8=FIXT.1.1|9=95|35=A|34=1|49=ORP_RESZ_B|52=20190521-11:38:33.000|56=BLPORPBETA|98=0|108=30|141=Y|1137=FIX50SP2|10=193|
20190521-11:38:43.000000000 : 8=FIXT.1.1|9=95|35=A|34=1|49=ORP_RESZ_B|52=20190521-11:38:43.000|56=BLPORPBETA|98=0|108=30|141=Y|1137=FIX50SP2|10=194|
20190521-11:38:53.000000000 : 8=FIXT.1.1|9=95|35=A|34=1|49=ORP_RESZ_B|52=20190521-11:38:53.000|56=BLPORPBETA|98=0|108=30|141=Y|1137=FIX50SP2|10=195|
20190521-11:39:03.000000000 : 8=FIXT.1.1|9=95|35=A|34=1|49=ORP_RESZ_B|52=20190521-11:39:03.000|56=BLPORPBETA|98=0|108=30|141=Y|1137=FIX50SP2|10=191|
20190521-11:39:13.000000000 : 8=FIXT.1.1|9=95|35=A|34=1|49=ORP_RESZ_B|52=20190521-11:39:13.000|56=BLPORPBETA|98=0|108=30|141=Y|1137=FIX50SP2|10=192|
20190521-11:39:23.000000000 : 8=FIXT.1.1|9=95|35=A|34=1|49=ORP_RESZ_B|52=20190521-11:39:23.000|56=BLPORPBETA|98=0|108=30|141=Y|1137=FIX50SP2|10=193|
20190521-11:39:33.000000000 : 8=FIXT.1.1|9=95|35=A|34=1|49=ORP_RESZ_B|52=20190521-11:39:33.000|56=BLPORPBETA|98=0|108=30|141=Y|1137=FIX50SP2|10=194|
20190521-11:39:43.000000000 : 8=FIXT.1.1|9=95|35=A|34=1|49=ORP_RESZ_B|52=20190521-11:39:43.000|56=BLPORPBETA|98=0|108=30|141=Y|1137=FIX50SP2|10=195|
20190521-11:39:53.000000000 : 8=FIXT.1.1|9=95|35=A|34=1|49=ORP_RESZ_B|52=20190521-11:39:53.000|56=BLPORPBETA|98=0|108=30|141=Y|1137=FIX50SP2|10=196|
20190521-11:40:03.000000000 : 8=FIXT.1.1|9=95|35=A|34=1|49=ORP_RESZ_B|52=20190521-11:40:03.000|56=BLPORPBETA|98=0|108=30|141=Y|1137=FIX50SP2|10=183|
20190521-11:40:13.000000000 : 8=FIXT.1.1|9=95|35=A|34=1|49=ORP_RESZ_B|52=20190521-11:40:13.000|56=BLPORPBETA|98=0|108=30|141=Y|1137=FIX50SP2|10=184|
20190521-11:40:23.000000000 : 8=FIXT.1.1|9=95|35=A|34=1|49=ORP_RESZ_B|52=20190521-11:40:23.000|56=BLPORPBETA|98=0|108=30|141=Y|1137=FIX50SP2|10=185|
20190521-11:40:33.000000000 : 8=FIXT.1.1|9=95|35=A|34=1|49=ORP_RESZ_B|52=20190521-11:40:33.000|56=BLPORPBETA|98=0|108=30|141=Y|1137=FIX50SP2|10=186|
20190521-11:40:43.000000000 : 8=FIXT.1.1|9=95|35=A|34=1|49=ORP_RESZ_B|52=20190521-11:40:43.000|56=BLPORPBETA|98=0|108=30|141=Y|1137=FIX50SP2|10=187|
20190521-11:40:53.000000000 : 8=FIXT.1.1|9=95|35=A|34=1|49=ORP_RESZ_B|52=20190521-11:40:53.000|56=BLPORPBETA|98=0|108=30|141=Y|1137=FIX50SP2|10=188|
20190521-11:41:03.000000000 : 8=FIXT.1.1|9=95|35=A|34=1|49=ORP_RESZ_B|52=20190521-11:41:03.000|56=BLPORPBETA|98=0|108=30|141=Y|1137=FIX50SP2|10=184|
20190521-11:41:13.000000000 : 8=FIXT.1.1|9=95|35=A|34=1|49=ORP_RESZ_B|52=20190521-11:41:13.000|56=BLPORPBETA|98=0|108=30|141=Y|1137=FIX50SP2|10=185|
20190521-11:41:23.000000000 : 8=FIXT.1.1|9=95|35=A|34=1|49=ORP_RESZ_B|52=20190521-11:41:23.000|56=BLPORPBETA|98=0|108=30|141=Y|1137=FIX50SP2|10=186|
20190521-11:41:33.000000000 : 8=FIXT.1.1|9=95|35=A|34=1|49=ORP_RESZ_B|52=20190521-11:41:33.000|56=BLPORPBETA|98=0|108=30|141=Y|1137=FIX50SP2|10=187|
20190521-11:41:43.000000000 : 8=FIXT.1.1|9=95|35=A|34=1|49=ORP_RESZ_B|52=20190521-11:41:43.000|56=BLPORPBETA|98=0|108=30|141=Y|1137=FIX50SP2|10=188|
20190521-11:41:53.000000000 : 8=FIXT.1.1|9=95|35=A|34=1|49=ORP_RESZ_B|52=20190521-11:41:53.000|56=BLPORPBETA|98=0|108=30|141=Y|1137=FIX50SP2|10=189|
20190521-11:42:03.000000000 : 8=FIXT.1.1|9=95|35=A|34=1|49=ORP_RESZ_B|52=20190521-11:42:03.000|56=BLPORPBETA|98=0|108=30|141=Y|1137=FIX50SP2|10=185|
20190521-11:42:13.000000000 : 8=FIXT.1.1|9=95|35=A|34=1|49=ORP_RESZ_B|52=20190521-11:42:13.000|56=BLPORPBETA|98=0|108=30|141=Y|1137=FIX50SP2|10=186|
20190521-11:42:23.000000000 : 8=FIXT.1.1|9=95|35=A|34=1|49=ORP_RESZ_B|52=20190521-11:42:23.000|56=BLPORPBETA|98=0|108=30|141=Y|1137=FIX50SP2|10=187|
20190521-11:42:33.000000000 : 8=FIXT.1.1|9=95|35=A|34=1|49=ORP_RESZ_B|52=20190521-11:42:33.000|56=BLPORPBETA|98=0|108=30|141=Y|1137=FIX50SP2|10=188|
20190521-11:42:43.000000000 : 8=FIXT.1.1|9=95|35=A|34=1|49=ORP_RESZ_B|52=20190521-11:42:43.000|56=BLPORPBETA|98=0|108=30|141=Y|1137=FIX50SP2|10=189|
20190521-11:42:53.000000000 : 8=FIXT.1.1|9=95|35=A|34=1|49=ORP_RESZ_B|52=20190521-11:42:53.000|56=BLPORPBETA|98=0|108=30|141=Y|1137=FIX50SP2|10=190|
20190521-11:43:03.000000000 : 8=FIXT.1.1|9=95|35=A|34=1|49=ORP_RESZ_B|52=20190521-11:43:03.000|56=BLPORPBETA|98=0|108=30|141=Y|1137=FIX50SP2|10=186|
20190521-11:43:13.000000000 : 8=FIXT.1.1|9=95|35=A|34=1|49=ORP_RESZ_B|52=20190521-11:43:13.000|56=BLPORPBETA|98=0|108=30|141=Y|1137=FIX50SP2|10=187|
20190521-11:43:23.000000000 : 8=FIXT.1.1|9=95|35=A|34=1|49=ORP_RESZ_B|52=20190521-11:43:23.000|56=BLPORPBETA|98=0|108=30|141=Y|1137=FIX50SP2|10=188|
20190521-11:43:33.000000000 : 8=FIXT.1.1|9=95|35=A|34=1|49=ORP_RESZ_B|52=20190521-11:43:33.000|56=BLPORPBETA|98=0|108=30|141=Y|1137=FIX50SP2|10=189|
20190521-11:43:43.000000000 : 8=FIXT.1.1|9=95|35=A|34=1|49=ORP_RESZ_B|52=20190521-11:43:43.000|56=BLPORPBETA|98=0|108=30|141=Y|1137=FIX50SP2|10=190|
20190521-11:43:53.000000000 : 8=FIXT.1.1|9=95|35=A|34=1|49=ORP_RESZ_B|52=20190521-11:43:53.000|56=BLPORPBETA|98=0|108=30|141=Y|1137=FIX50SP2|10=191|
20190521-11:44:03.000000000 : 8=FIXT.1.1|9=95|35=A|34=1|49=ORP_RESZ_B|52=20190521-11:44:03.000|56=BLPORPBETA|98=0|108=30|141=Y|1137=FIX50SP2|10=187|
20190521-11:44:13.000000000 : 8=FIXT.1.1|9=95|35=A|34=1|49=ORP_RESZ_B|52=20190521-11:44:13.000|56=BLPORPBETA|98=0|108=30|141=Y|1137=FIX50SP2|10=188|
20190521-11:44:23.000000000 : 8=FIXT.1.1|9=95|35=A|34=1|49=ORP_RESZ_B|52=20190521-11:44:23.000|56=BLPORPBETA|98=0|108=30|141=Y|1137=FIX50SP2|10=189|
20190521-11:44:33.000000000 : 8=FIXT.1.1|9=95|35=A|34=1|49=ORP_RESZ_B|52=20190521-11:44:33.000|56=BLPORPBETA|98=0|108=30|141=Y|1137=FIX50SP2|10=190|
20190521-11:44:43.000000000 : 8=FIXT.1.1|9=95|35=A|34=1|49=ORP_RESZ_B|52=20190521-11:44:43.000|56=BLPORPBETA|98=0|108=30|141=Y|1137=FIX50SP2|10=191|
20190521-11:44:53.000000000 : 8=FIXT.1.1|9=95|35=A|34=1|49=ORP_RESZ_B|52=20190521-11:44:53.000|56=BLPORPBETA|98=0|108=30|141=Y|1137=FIX50SP2|10=192|
20190521-11:45:03.000000000 : 8=FIXT.1.1|9=95|35=A|34=1|49=ORP_RESZ_B|52=20190521-11:45:03.000|56=BLPORPBETA|98=0|108=30|141=Y|1137=FIX50SP2|10=188|
20190521-11:45:13.000000000 : 8=FIXT.1.1|9=95|35=A|34=1|49=ORP_RESZ_B|52=20190521-11:45:13.000|56=BLPORPBETA|98=0|108=30|141=Y|1137=FIX50SP2|10=189|
20190521-11:45:23.000000000 : 8=FIXT.1.1|9=95|35=A|34=1|49=ORP_RESZ_B|52=20190521-11:45:23.000|56=BLPORPBETA|98=0|108=30|141=Y|1137=FIX50SP2|10=190|
20190521-11:45:33.000000000 : 8=FIXT.1.1|9=95|35=A|34=1|49=ORP_RESZ_B|52=20190521-11:45:33.000|56=BLPORPBETA|98=0|108=30|141=Y|1137=FIX50SP2|10=191|
20190521-11:45:43.000000000 : 8=FIXT.1.1|9=95|35=A|34=1|49=ORP_RESZ_B|52=20190521-11:45:43.000|56=BLPORPBETA|98=0|108=30|141=Y|1137=FIX50SP2|10=192|
20190521-11:45:53.000000000 : 8=FIXT.1.1|9=95|35=A|34=1|49=ORP_RESZ_B|52=20190521-11:45:53.000|56=BLPORPBETA|98=0|108=30|141=Y|1137=FIX50SP2|10=193|
20190521-11:46:03.000000000 : 8=FIXT.1.1|9=95|35=A|34=1|49=ORP_RESZ_B|52=20190521-11:46:03.000|56=BLPORPBETA|98=0|108=30|141=Y|1137=FIX50SP2|10=189|
20190521-11:46:13.000000000 : 8=FIXT.1.1|9=95|35=A|34=1|49=ORP_RESZ_B|52=20190521-11:46:13.000|56=BLPORPBETA|98=0|108=30|141=Y|1137=FIX50SP2|10=190|
20190521-11:46:23.000000000 : 8=FIXT.1.1|9=95|35=A|34=1|49=ORP_RESZ_B|52=20190521-11:46:23.000|56=BLPORPBETA|98=0|108=30|141=Y|1137=FIX50SP2|10=191|
20190521-11:46:33.000000000 : 8=FIXT.1.1|9=95|35=A|34=1|49=ORP_RESZ_B|52=20190521-11:46:33.000|56=BLPORPBETA|98=0|108=30|141=Y|1137=FIX50SP2|10=192|
20190521-11:46:43.000000000 : 8=FIXT.1.1|9=95|35=A|34=1|49=ORP_RESZ_B|52=20190521-11:46:43.000|56=BLPORPBETA|98=0|108=30|141=Y|1137=FIX50SP2|10=193|
20190521-11:46:53.000000000 : 8=FIXT.1.1|9=95|35=A|34=1|49=ORP_RESZ_B|52=20190521-11:46:53.000|56=BLPORPBETA|98=0|108=30|141=Y|1137=FIX50SP2|10=194|
20190521-11:47:03.000000000 : 8=FIXT.1.1|9=95|35=A|34=1|49=ORP_RESZ_B|52=20190521-11:47:03.000|56=BLPORPBETA|98=0|108=30|141=Y|1137=FIX50SP2|10=190|
20190521-11:47:13.000000000 : 8=FIXT.1.1|9=95|35=A|34=1|49=ORP_RESZ_B|52=20190521-11:47:13.000|56=BLPORPBETA|98=0|108=30|141=Y|1137=FIX50SP2|10=191|
20190521-11:47:23.000000000 : 8=FIXT.1.1|9=95|35=A|34=1|49=ORP_RESZ_B|52=20190521-11:47:23.000|56=BLPORPBETA|98=0|108=30|141=Y|1137=FIX50SP2|10=192|
20190521-11:47:33.000000000 : 8=FIXT.1.1|9=95|35=A|34=1|49=ORP_RESZ_B|52=20190521-11:47:33.000|56=BLPORPBETA|98=0|108=30|141=Y|1137=FIX50SP2|10=193|
20190521-11:47:43.000000000 : 8=FIXT.1.1|9=95|35=A|34=1|49=ORP_RESZ_B|52=20190521-11:47:43.000|56=BLPORPBETA|98=0|108=30|141=Y|1137=FIX50SP2|10=194|
20190521-11:47:53.000000000 : 8=FIXT.1.1|9=95|35=A|34=1|49=ORP_RESZ_B|52=20190521-11:47:53.000|56=BLPORPBETA|98=0|108=30|141=Y|1137=FIX50SP2|10=195|
20190521-11:48:03.000000000 : 8=FIXT.1.1|9=95|35=A|34=1|49=ORP_RESZ_B|52=20190521-11:48:03.000|56=BLPORPBETA|98=0|108=30|141=Y|1137=FIX50SP2|10=191|
20190521-11:48:13.000000000 : 8=FIXT.1.1|9=95|35=A|34=1|49=ORP_RESZ_B|52=20190521-11:48:13.000|56=BLPORPBETA|98=0|108=30|141=Y|1137=FIX50SP2|10=192|
20190521-11:48:23.000000000 : 8=FIXT.1.1|9=95|35=A|34=1|49=ORP_RESZ_B|52=20190521-11:48:23.000|56=BLPORPBETA|98=0|108=30|141=Y|1137=FIX50SP2|10=193|
20190521-11:48:33.000000000 : 8=FIXT.1.1|9=95|35=A|34=1|49=ORP_RESZ_B|52=20190521-11:48:33.000|56=BLPORPBETA|98=0|108=30|141=Y|1137=FIX50SP2|10=194|
20190521-11:48:43.000000000 : 8=FIXT.1.1|9=95|35=A|34=1|49=ORP_RESZ_B|52=20190521-11:48:43.000|56=BLPORPBETA|98=0|108=30|141=Y|1137=FIX50SP2|10=195|
20190521-11:48:53.000000000 : 8=FIXT.1.1|9=95|35=A|34=1|49=ORP_RESZ_B|52=20190521-11:48:53.000|56=BLPORPBETA|98=0|108=30|141=Y|1137=FIX50SP2|10=196|
20190521-11:49:03.000000000 : 8=FIXT.1.1|9=95|35=A|34=1|49=ORP_RESZ_B|52=20190521-11:49:03.000|56=BLPORPBETA|98=0|108=30|141=Y|1137=FIX50SP2|10=192|
20190521-11:49:13.000000000 : 8=FIXT.1.1|9=95|35=A|34=1|49=ORP_RESZ_B|52=20190521-11:49:13.000|56=BLPORPBETA|98=0|108=30|141=Y|1137=FIX50SP2|10=193|
20190521-11:49:23.000000000 : 8=FIXT.1.1|9=95|35=A|34=1|49=ORP_RESZ_B|52=20190521-11:49:23.000|56=BLPORPBETA|98=0|108=30|141=Y|1137=FIX50SP2|10=194|
20190521-11:49:33.000000000 : 8=FIXT.1.1|9=95|35=A|34=1|49=ORP_RESZ_B|52=20190521-11:49:33.000|56=BLPORPBETA|98=0|108=30|141=Y|1137=FIX50SP2|10=195|
20190521-11:49:43.000000000 : 8=FIXT.1.1|9=95|35=A|34=1|49=ORP_RESZ_B|52=20190521-11:49:43.000|56=BLPORPBETA|98=0|108=30|141=Y|1137=FIX50SP2|10=196|
20190521-11:49:53.000000000 : 8=FIXT.1.1|9=95|35=A|34=1|49=ORP_RESZ_B|52=20190521-11:49:53.000|56=BLPORPBETA|98=0|108=30|141=Y|1137=FIX50SP2|10=197|
20190521-11:50:03.000000000 : 8=FIXT.1.1|9=95|35=A|34=1|49=ORP_RESZ_B|52=20190521-11:50:03.000|56=BLPORPBETA|98=0|108=30|141=Y|1137=FIX50SP2|10=184|
20190521-11:50:13.000000000 : 8=FIXT.1.1|9=95|35=A|34=1|49=ORP_RESZ_B|52=20190521-11:50:13.000|56=BLPORPBETA|98=0|108=30|141=Y|1137=FIX50SP2|10=185|
20190521-11:50:23.000000000 : 8=FIXT.1.1|9=95|35=A|34=1|49=ORP_RESZ_B|52=20190521-11:50:23.000|56=BLPORPBETA|98=0|108=30|141=Y|1137=FIX50SP2|10=186|
20190521-11:50:33.000000000 : 8=FIXT.1.1|9=95|35=A|34=1|49=ORP_RESZ_B|52=20190521-11:50:33.000|56=BLPORPBETA|98=0|108=30|141=Y|1137=FIX50SP2|10=187|
20190521-11:50:43.000000000 : 8=FIXT.1.1|9=95|35=A|34=1|49=ORP_RESZ_B|52=20190521-11:50:43.000|56=BLPORPBETA|98=0|108=30|141=Y|1137=FIX50SP2|10=188|
20190521-11:50:53.000000000 : 8=FIXT.1.1|9=95|35=A|34=1|49=ORP_RESZ_B|52=20190521-11:50:53.000|56=BLPORPBETA|98=0|108=30|141=Y|1137=FIX50SP2|10=189|
20190521-11:51:03.000000000 : 8=FIXT.1.1|9=95|35=A|34=1|49=ORP_RESZ_B|52=20190521-11:51:03.000|56=BLPORPBETA|98=0|108=30|141=Y|1137=FIX50SP2|10=185|
20190521-11:51:13.000000000 : 8=FIXT.1.1|9=95|35=A|34=1|49=ORP_RESZ_B|52=20190521-11:51:13.000|56=BLPORPBETA|98=0|108=30|141=Y|1137=FIX50SP2|10=186|
20190521-11:51:23.000000000 : 8=FIXT.1.1|9=95|35=A|34=1|49=ORP_RESZ_B|52=20190521-11:51:23.000|56=BLPORPBETA|98=0|108=30|141=Y|1137=FIX50SP2|10=187|
20190521-11:51:33.000000000 : 8=FIXT.1.1|9=95|35=A|34=1|49=ORP_RESZ_B|52=20190521-11:51:33.000|56=BLPORPBETA|98=0|108=30|141=Y|1137=FIX50SP2|10=188|
20190521-11:51:43.000000000 : 8=FIXT.1.1|9=95|35=A|34=1|49=ORP_RESZ_B|52=20190521-11:51:43.000|56=BLPORPBETA|98=0|108=30|141=Y|1137=FIX50SP2|10=189|
20190521-11:51:53.000000000 : 8=FIXT.1.1|9=95|35=A|34=1|49=ORP_RESZ_B|52=20190521-11:51:53.000|56=BLPORPBETA|98=0|108=30|141=Y|1137=FIX50SP2|10=190|
20190521-11:52:03.000000000 : 8=FIXT.1.1|9=95|35=A|34=1|49=ORP_RESZ_B|52=20190521-11:52:03.000|56=BLPORPBETA|98=0|108=30|141=Y|1137=FIX50SP2|10=186|
20190521-11:52:13.000000000 : 8=FIXT.1.1|9=95|35=A|34=1|49=ORP_RESZ_B|52=20190521-11:52:13.000|56=BLPORPBETA|98=0|108=30|141=Y|1137=FIX50SP2|10=187|
20190521-11:52:23.000000000 : 8=FIXT.1.1|9=95|35=A|34=1|49=ORP_RESZ_B|52=20190521-11:52:23.000|56=BLPORPBETA|98=0|108=30|141=Y|1137=FIX50SP2|10=188|
20190521-11:52:33.000000000 : 8=FIXT.1.1|9=95|35=A|34=1|49=ORP_RESZ_B|52=20190521-11:52:33.000|56=BLPORPBETA|98=0|108=30|141=Y|1137=FIX50SP2|10=189|
20190521-11:52:43.000000000 : 8=FIXT.1.1|9=95|35=A|34=1|49=ORP_RESZ_B|52=20190521-11:52:43.000|56=BLPORPBETA|98=0|108=30|141=Y|1137=FIX50SP2|10=190|
20190521-11:52:53.000000000 : 8=FIXT.1.1|9=95|35=A|34=1|49=ORP_RESZ_B|52=20190521-11:52:53.000|56=BLPORPBETA|98=0|108=30|141=Y|1137=FIX50SP2|10=191|
20190521-11:53:03.000000000 : 8=FIXT.1.1|9=95|35=A|34=1|49=ORP_RESZ_B|52=20190521-11:53:03.000|56=BLPORPBETA|98=0|108=30|141=Y|1137=FIX50SP2|10=187|
20190521-11:53:13.000000000 : 8=FIXT.1.1|9=95|35=A|34=1|49=ORP_RESZ_B|52=20190521-11:53:13.000|56=BLPORPBETA|98=0|108=30|141=Y|1137=FIX50SP2|10=188|
20190521-11:53:23.000000000 : 8=FIXT.1.1|9=95|35=A|34=1|49=ORP_RESZ_B|52=20190521-11:53:23.000|56=BLPORPBETA|98=0|108=30|141=Y|1137=FIX50SP2|10=189|
20190521-11:53:33.000000000 : 8=FIXT.1.1|9=95|35=A|34=1|49=ORP_RESZ_B|52=20190521-11:53:33.000|56=BLPORPBETA|98=0|108=30|141=Y|1137=FIX50SP2|10=190|
20190521-11:53:43.000000000 : 8=FIXT.1.1|9=95|35=A|34=1|49=ORP_RESZ_B|52=20190521-11:53:43.000|56=BLPORPBETA|98=0|108=30|141=Y|1137=FIX50SP2|10=191|
20190521-11:53:53.000000000 : 8=FIXT.1.1|9=95|35=A|34=1|49=ORP_RESZ_B|52=20190521-11:53:53.000|56=BLPORPBETA|98=0|108=30|141=Y|1137=FIX50SP2|10=192|
20190521-11:54:03.000000000 : 8=FIXT.1.1|9=95|35=A|34=1|49=ORP_RESZ_B|52=20190521-11:54:03.000|56=BLPORPBETA|98=0|108=30|141=Y|1137=FIX50SP2|10=188|
20190521-11:54:13.000000000 : 8=FIXT.1.1|9=95|35=A|34=1|49=ORP_RESZ_B|52=20190521-11:54:13.000|56=BLPORPBETA|98=0|108=30|141=Y|1137=FIX50SP2|10=189|
20190521-11:54:23.000000000 : 8=FIXT.1.1|9=95|35=A|34=1|49=ORP_RESZ_B|52=20190521-11:54:23.000|56=BLPORPBETA|98=0|108=30|141=Y|1137=FIX50SP2|10=190|
20190521-11:54:33.000000000 : 8=FIXT.1.1|9=95|35=A|34=1|49=ORP_RESZ_B|52=20190521-11:54:33.000|56=BLPORPBETA|98=0|108=30|141=Y|1137=FIX50SP2|10=191|
20190521-11:54:43.000000000 : 8=FIXT.1.1|9=95|35=A|34=1|49=ORP_RESZ_B|52=20190521-11:54:43.000|56=BLPORPBETA|98=0|108=30|141=Y|1137=FIX50SP2|10=192|
20190521-11:54:53.000000000 : 8=FIXT.1.1|9=95|35=A|34=1|49=ORP_RESZ_B|52=20190521-11:54:53.000|56=BLPORPBETA|98=0|108=30|141=Y|1137=FIX50SP2|10=193|
20190521-11:55:03.000000000 : 8=FIXT.1.1|9=95|35=A|34=1|49=ORP_RESZ_B|52=20190521-11:55:03.000|56=BLPORPBETA|98=0|108=30|141=Y|1137=FIX50SP2|10=189|
20190521-11:55:13.000000000 : 8=FIXT.1.1|9=95|35=A|34=1|49=ORP_RESZ_B|52=20190521-11:55:13.000|56=BLPORPBETA|98=0|108=30|141=Y|1137=FIX50SP2|10=190|
20190521-11:55:23.000000000 : 8=FIXT.1.1|9=95|35=A|34=1|49=ORP_RESZ_B|52=20190521-11:55:23.000|56=BLPORPBETA|98=0|108=30|141=Y|1137=FIX50SP2|10=191|
20190521-11:55:33.000000000 : 8=FIXT.1.1|9=95|35=A|34=1|49=ORP_RESZ_B|52=20190521-11:55:33.000|56=BLPORPBETA|98=0|108=30|141=Y|1137=FIX50SP2|10=192|
20190521-11:55:43.000000000 : 8=FIXT.1.1|9=95|35=A|34=1|49=ORP_RESZ_B|52=20190521-11:55:43.000|56=BLPORPBETA|98=0|108=30|141=Y|1137=FIX50SP2|10=193|
20190521-11:55:53.000000000 : 8=FIXT.1.1|9=95|35=A|34=1|49=ORP_RESZ_B|52=20190521-11:55:53.000|56=BLPORPBETA|98=0|108=30|141=Y|1137=FIX50SP2|10=194|
20190521-11:56:03.000000000 : 8=FIXT.1.1|9=95|35=A|34=1|49=ORP_RESZ_B|52=20190521-11:56:03.000|56=BLPORPBETA|98=0|108=30|141=Y|1137=FIX50SP2|10=190|
20190521-11:56:13.000000000 : 8=FIXT.1.1|9=95|35=A|34=1|49=ORP_RESZ_B|52=20190521-11:56:13.000|56=BLPORPBETA|98=0|108=30|141=Y|1137=FIX50SP2|10=191|
20190521-11:56:23.000000000 : 8=FIXT.1.1|9=95|35=A|34=1|49=ORP_RESZ_B|52=20190521-11:56:23.000|56=BLPORPBETA|98=0|108=30|141=Y|1137=FIX50SP2|10=192|
20190521-11:56:33.000000000 : 8=FIXT.1.1|9=95|35=A|34=1|49=ORP_RESZ_B|52=20190521-11:56:33.000|56=BLPORPBETA|98=0|108=30|141=Y|1137=FIX50SP2|10=193|
20190521-11:56:43.000000000 : 8=FIXT.1.1|9=95|35=A|34=1|49=ORP_RESZ_B|52=20190521-11:56:43.000|56=BLPORPBETA|98=0|108=30|141=Y|1137=FIX50SP2|10=194|
20190521-11:56:53.000000000 : 8=FIXT.1.1|9=95|35=A|34=1|49=ORP_RESZ_B|52=20190521-11:56:53.000|56=BLPORPBETA|98=0|108=30|141=Y|1137=FIX50SP2|10=195|
20190521-11:57:03.000000000 : 8=FIXT.1.1|9=95|35=A|34=1|49=ORP_RESZ_B|52=20190521-11:57:03.000|56=BLPORPBETA|98=0|108=30|141=Y|1137=FIX50SP2|10=191|
20190521-11:57:13.000000000 : 8=FIXT.1.1|9=95|35=A|34=1|49=ORP_RESZ_B|52=20190521-11:57:13.000|56=BLPORPBETA|98=0|108=30|141=Y|1137=FIX50SP2|10=192|
20190521-11:57:23.000000000 : 8=FIXT.1.1|9=95|35=A|34=1|49=ORP_RESZ_B|52=20190521-11:57:23.000|56=BLPORPBETA|98=0|108=30|141=Y|1137=FIX50SP2|10=193|
20190521-11:57:33.000000000 : 8=FIXT.1.1|9=95|35=A|34=1|49=ORP_RESZ_B|52=20190521-11:57:33.000|56=BLPORPBETA|98=0|108=30|141=Y|1137=FIX50SP2|10=194|
20190521-11:57:43.000000000 : 8=FIXT.1.1|9=95|35=A|34=1|49=ORP_RESZ_B|52=20190521-11:57:43.000|56=BLPORPBETA|98=0|108=30|141=Y|1137=FIX50SP2|10=195|
20190521-11:57:53.000000000 : 8=FIXT.1.1|9=95|35=A|34=1|49=ORP_RESZ_B|52=20190521-11:57:53.000|56=BLPORPBETA|98=0|108=30|141=Y|1137=FIX50SP2|10=196|
20190521-11:58:03.000000000 : 8=FIXT.1.1|9=95|35=A|34=1|49=ORP_RESZ_B|52=20190521-11:58:03.000|56=BLPORPBETA|98=0|108=30|141=Y|1137=FIX50SP2|10=192|
20190521-11:58:13.000000000 : 8=FIXT.1.1|9=95|35=A|34=1|49=ORP_RESZ_B|52=20190521-11:58:13.000|56=BLPORPBETA|98=0|108=30|141=Y|1137=FIX50SP2|10=193|
20190521-11:58:23.000000000 : 8=FIXT.1.1|9=95|35=A|34=1|49=ORP_RESZ_B|52=20190521-11:58:23.000|56=BLPORPBETA|98=0|108=30|141=Y|1137=FIX50SP2|10=194|
20190521-11:58:33.000000000 : 8=FIXT.1.1|9=95|35=A|34=1|49=ORP_RESZ_B|52=20190521-11:58:33.000|56=BLPORPBETA|98=0|108=30|141=Y|1137=FIX50SP2|10=195|
20190521-11:58:43.000000000 : 8=FIXT.1.1|9=95|35=A|34=1|49=ORP_RESZ_B|52=20190521-11:58:43.000|56=BLPORPBETA|98=0|108=30|141=Y|1137=FIX50SP2|10=196|
20190521-11:58:53.000000000 : 8=FIXT.1.1|9=95|35=A|34=1|49=ORP_RESZ_B|52=20190521-11:58:53.000|56=BLPORPBETA|98=0|108=30|141=Y|1137=FIX50SP2|10=197|
20190521-11:59:03.000000000 : 8=FIXT.1.1|9=95|35=A|34=1|49=ORP_RESZ_B|52=20190521-11:59:03.000|56=BLPORPBETA|98=0|108=30|141=Y|1137=FIX50SP2|10=193|
20190521-11:59:13.000000000 : 8=FIXT.1.1|9=95|35=A|34=1|49=ORP_RESZ_B|52=20190521-11:59:13.000|56=BLPORPBETA|98=0|108=30|141=Y|1137=FIX50SP2|10=194|
20190521-11:59:23.000000000 : 8=FIXT.1.1|9=95|35=A|34=1|49=ORP_RESZ_B|52=20190521-11:59:23.000|56=BLPORPBETA|98=0|108=30|141=Y|1137=FIX50SP2|10=195|
20190521-11:59:33.000000000 : 8=FIXT.1.1|9=95|35=A|34=1|49=ORP_RESZ_B|52=20190521-11:59:33.000|56=BLPORPBETA|98=0|108=30|141=Y|1137=FIX50SP2|10=196|
20190521-11:59:43.000000000 : 8=FIXT.1.1|9=95|35=A|34=1|49=ORP_RESZ_B|52=20190521-11:59:43.000|56=BLPORPBETA|98=0|108=30|141=Y|1137=FIX50SP2|10=197|
20190521-11:59:53.000000000 : 8=FIXT.1.1|9=95|35=A|34=1|49=ORP_RESZ_B|52=20190521-11:59:53.000|56=BLPORPBETA|98=0|108=30|141=Y|1137=FIX50SP2|10=198|
20190521-12:00:03.000000000 : 8=FIXT.1.1|9=95|35=A|34=1|49=ORP_RESZ_B|52=20190521-12:00:03.000|56=BLPORPBETA|98=0|108=30|141=Y|1137=FIX50SP2|10=180|
20190521-12:00:13.000000000 : 8=FIXT.1.1|9=95|35=A|34=1|49=ORP_RESZ_B|52=20190521-12:00:13.000|56=BLPORPBETA|98=0|108=30|141=Y|1137=FIX50SP2|10=181|
20190521-12:00:23.000000000 : 8=FIXT.1.1|9=95|35=A|34=1|49=ORP_RESZ_B|52=20190521-12:00:23.000|56=BLPORPBETA|98=0|108=30|141=Y|1137=FIX50SP2|10=182|
20190521-12:00:33.000000000 : 8=FIXT.1.1|9=95|35=A|34=1|49=ORP_RESZ_B|52=20190521-12:00:33.000|56=BLPORPBETA|98=0|108=30|141=Y|1137=FIX50SP2|10=183|
20190521-12:00:44.000000000 : 8=FIXT.1.1|9=95|35=A|34=1|49=ORP_RESZ_B|52=20190521-12:00:43.000|56=BLPORPBETA|98=0|108=30|141=Y|1137=FIX50SP2|10=184|
20190521-12:00:54.000000000 : 8=FIXT.1.1|9=95|35=A|34=1|49=ORP_RESZ_B|52=20190521-12:00:53.000|56=BLPORPBETA|98=0|108=30|141=Y|1137=FIX50SP2|10=185|
20190521-12:01:04.000000000 : 8=FIXT.1.1|9=95|35=A|34=1|49=ORP_RESZ_B|52=20190521-12:01:03.000|56=BLPORPBETA|98=0|108=30|141=Y|1137=FIX50SP2|10=181|
20190521-12:01:14.000000000 : 8=FIXT.1.1|9=95|35=A|34=1|49=ORP_RESZ_B|52=20190521-12:01:13.000|56=BLPORPBETA|98=0|108=30|141=Y|1137=FIX50SP2|10=182|
20190521-12:01:24.000000000 : 8=FIXT.1.1|9=95|35=A|34=1|49=ORP_RESZ_B|52=20190521-12:01:24.000|56=BLPORPBETA|98=0|108=30|141=Y|1137=FIX50SP2|10=184|
20190521-12:01:34.000000000 : 8=FIXT.1.1|9=95|35=A|34=1|49=ORP_RESZ_B|52=20190521-12:01:34.000|56=BLPORPBETA|98=0|108=30|141=Y|1137=FIX50SP2|10=185|
20190521-12:01:44.000000000 : 8=FIXT.1.1|9=95|35=A|34=1|49=ORP_RESZ_B|52=20190521-12:01:44.000|56=BLPORPBETA|98=0|108=30|141=Y|1137=FIX50SP2|10=186|
20190521-12:01:54.000000000 : 8=FIXT.1.1|9=95|35=A|34=1|49=ORP_RESZ_B|52=20190521-12:01:54.000|56=BLPORPBETA|98=0|108=30|141=Y|1137=FIX50SP2|10=187|
20190521-12:02:04.000000000 : 8=FIXT.1.1|9=95|35=A|34=1|49=ORP_RESZ_B|52=20190521-12:02:04.000|56=BLPORPBETA|98=0|108=30|141=Y|1137=FIX50SP2|10=183|
20190521-12:02:14.000000000 : 8=FIXT.1.1|9=95|35=A|34=1|49=ORP_RESZ_B|52=20190521-12:02:14.000|56=BLPORPBETA|98=0|108=30|141=Y|1137=FIX50SP2|10=184|
20190521-12:02:24.000000000 : 8=FIXT.1.1|9=95|35=A|34=1|49=ORP_RESZ_B|52=20190521-12:02:24.000|56=BLPORPBETA|98=0|108=30|141=Y|1137=FIX50SP2|10=185|
20190521-12:02:34.000000000 : 8=FIXT.1.1|9=95|35=A|34=1|49=ORP_RESZ_B|52=20190521-12:02:34.000|56=BLPORPBETA|98=0|108=30|141=Y|1137=FIX50SP2|10=186|
20190521-12:02:44.000000000 : 8=FIXT.1.1|9=95|35=A|34=1|49=ORP_RESZ_B|52=20190521-12:02:44.000|56=BLPORPBETA|98=0|108=30|141=Y|1137=FIX50SP2|10=187|
20190521-12:02:54.000000000 : 8=FIXT.1.1|9=95|35=A|34=1|49=ORP_RESZ_B|52=20190521-12:02:54.000|56=BLPORPBETA|98=0|108=30|141=Y|1137=FIX50SP2|10=188|
20190521-12:03:04.000000000 : 8=FIXT.1.1|9=95|35=A|34=1|49=ORP_RESZ_B|52=20190521-12:03:04.000|56=BLPORPBETA|98=0|108=30|141=Y|1137=FIX50SP2|10=184|
20190521-12:03:14.000000000 : 8=FIXT.1.1|9=95|35=A|34=1|49=ORP_RESZ_B|52=20190521-12:03:14.000|56=BLPORPBETA|98=0|108=30|141=Y|1137=FIX50SP2|10=185|
20190521-12:03:24.000000000 : 8=FIXT.1.1|9=95|35=A|34=1|49=ORP_RESZ_B|52=20190521-12:03:24.000|56=BLPORPBETA|98=0|108=30|141=Y|1137=FIX50SP2|10=186|
20190521-12:03:34.000000000 : 8=FIXT.1.1|9=95|35=A|34=1|49=ORP_RESZ_B|52=20190521-12:03:34.000|56=BLPORPBETA|98=0|108=30|141=Y|1137=FIX50SP2|10=187|
20190521-12:03:44.000000000 : 8=FIXT.1.1|9=95|35=A|34=1|49=ORP_RESZ_B|52=20190521-12:03:44.000|56=BLPORPBETA|98=0|108=30|141=Y|1137=FIX50SP2|10=188|
20190521-12:03:54.000000000 : 8=FIXT.1.1|9=95|35=A|34=1|49=ORP_RESZ_B|52=20190521-12:03:54.000|56=BLPORPBETA|98=0|108=30|141=Y|1137=FIX50SP2|10=189|
20190521-12:04:04.000000000 : 8=FIXT.1.1|9=95|35=A|34=1|49=ORP_RESZ_B|52=20190521-12:04:04.000|56=BLPORPBETA|98=0|108=30|141=Y|1137=FIX50SP2|10=185|
20190521-12:04:14.000000000 : 8=FIXT.1.1|9=95|35=A|34=1|49=ORP_RESZ_B|52=20190521-12:04:14.000|56=BLPORPBETA|98=0|108=30|141=Y|1137=FIX50SP2|10=186|
20190521-12:04:24.000000000 : 8=FIXT.1.1|9=95|35=A|34=1|49=ORP_RESZ_B|52=20190521-12:04:24.000|56=BLPORPBETA|98=0|108=30|141=Y|1137=FIX50SP2|10=187|
20190521-12:04:34.000000000 : 8=FIXT.1.1|9=95|35=A|34=1|49=ORP_RESZ_B|52=20190521-12:04:34.000|56=BLPORPBETA|98=0|108=30|141=Y|1137=FIX50SP2|10=188|
20190521-12:04:44.000000000 : 8=FIXT.1.1|9=95|35=A|34=1|49=ORP_RESZ_B|52=20190521-12:04:44.000|56=BLPORPBETA|98=0|108=30|141=Y|1137=FIX50SP2|10=189|
20190521-12:04:54.000000000 : 8=FIXT.1.1|9=95|35=A|34=1|49=ORP_RESZ_B|52=20190521-12:04:54.000|56=BLPORPBETA|98=0|108=30|141=Y|1137=FIX50SP2|10=190|
20190521-12:05:04.000000000 : 8=FIXT.1.1|9=95|35=A|34=1|49=ORP_RESZ_B|52=20190521-12:05:04.000|56=BLPORPBETA|98=0|108=30|141=Y|1137=FIX50SP2|10=186|
20190521-12:05:14.000000000 : 8=FIXT.1.1|9=95|35=A|34=1|49=ORP_RESZ_B|52=20190521-12:05:14.000|56=BLPORPBETA|98=0|108=30|141=Y|1137=FIX50SP2|10=187|
20190521-12:05:23.000000000 : 8=FIXT.1.1|9=95|35=A|34=1|49=ORP_RESZ_B|52=20190521-12:05:23.000|56=BLPORPBETA|98=0|108=30|141=Y|1137=FIX50SP2|10=187|
20190521-12:05:33.000000000 : 8=FIXT.1.1|9=95|35=A|34=1|49=ORP_RESZ_B|52=20190521-12:05:33.000|56=BLPORPBETA|98=0|108=30|141=Y|1137=FIX50SP2|10=188|
20190521-12:05:43.000000000 : 8=FIXT.1.1|9=95|35=A|34=1|49=ORP_RESZ_B|52=20190521-12:05:43.000|56=BLPORPBETA|98=0|108=30|141=Y|1137=FIX50SP2|10=189|
20190521-12:05:53.000000000 : 8=FIXT.1.1|9=95|35=A|34=1|49=ORP_RESZ_B|52=20190521-12:05:53.000|56=BLPORPBETA|98=0|108=30|141=Y|1137=FIX50SP2|10=190|
20190521-12:06:03.000000000 : 8=FIXT.1.1|9=95|35=A|34=1|49=ORP_RESZ_B|52=20190521-12:06:03.000|56=BLPORPBETA|98=0|108=30|141=Y|1137=FIX50SP2|10=186|
20190521-12:06:13.000000000 : 8=FIXT.1.1|9=95|35=A|34=1|49=ORP_RESZ_B|52=20190521-12:06:13.000|56=BLPORPBETA|98=0|108=30|141=Y|1137=FIX50SP2|10=187|
20190521-12:06:23.000000000 : 8=FIXT.1.1|9=95|35=A|34=1|49=ORP_RESZ_B|52=20190521-12:06:23.000|56=BLPORPBETA|98=0|108=30|141=Y|1137=FIX50SP2|10=188|
20190521-12:06:33.000000000 : 8=FIXT.1.1|9=95|35=A|34=1|49=ORP_RESZ_B|52=20190521-12:06:33.000|56=BLPORPBETA|98=0|108=30|141=Y|1137=FIX50SP2|10=189|
20190521-12:06:43.000000000 : 8=FIXT.1.1|9=95|35=A|34=1|49=ORP_RESZ_B|52=20190521-12:06:43.000|56=BLPORPBETA|98=0|108=30|141=Y|1137=FIX50SP2|10=190|
20190521-12:06:53.000000000 : 8=FIXT.1.1|9=95|35=A|34=1|49=ORP_RESZ_B|52=20190521-12:06:53.000|56=BLPORPBETA|98=0|108=30|141=Y|1137=FIX50SP2|10=191|
20190521-12:07:03.000000000 : 8=FIXT.1.1|9=95|35=A|34=1|49=ORP_RESZ_B|52=20190521-12:07:03.000|56=BLPORPBETA|98=0|108=30|141=Y|1137=FIX50SP2|10=187|
20190521-12:07:13.000000000 : 8=FIXT.1.1|9=95|35=A|34=1|49=ORP_RESZ_B|52=20190521-12:07:13.000|56=BLPORPBETA|98=0|108=30|141=Y|1137=FIX50SP2|10=188|
20190521-12:07:23.000000000 : 8=FIXT.1.1|9=95|35=A|34=1|49=ORP_RESZ_B|52=20190521-12:07:23.000|56=BLPORPBETA|98=0|108=30|141=Y|1137=FIX50SP2|10=189|
20190521-12:07:33.000000000 : 8=FIXT.1.1|9=95|35=A|34=1|49=ORP_RESZ_B|52=20190521-12:07:33.000|56=BLPORPBETA|98=0|108=30|141=Y|1137=FIX50SP2|10=190|
20190521-12:07:43.000000000 : 8=FIXT.1.1|9=95|35=A|34=1|49=ORP_RESZ_B|52=20190521-12:07:43.000|56=BLPORPBETA|98=0|108=30|141=Y|1137=FIX50SP2|10=191|
20190521-12:07:53.000000000 : 8=FIXT.1.1|9=95|35=A|34=1|49=ORP_RESZ_B|52=20190521-12:07:53.000|56=BLPORPBETA|98=0|108=30|141=Y|1137=FIX50SP2|10=192|
20190521-12:08:03.000000000 : 8=FIXT.1.1|9=95|35=A|34=1|49=ORP_RESZ_B|52=20190521-12:08:03.000|56=BLPORPBETA|98=0|108=30|141=Y|1137=FIX50SP2|10=188|
20190521-12:08:13.000000000 : 8=FIXT.1.1|9=95|35=A|34=1|49=ORP_RESZ_B|52=20190521-12:08:13.000|56=BLPORPBETA|98=0|108=30|141=Y|1137=FIX50SP2|10=189|
20190521-12:08:23.000000000 : 8=FIXT.1.1|9=95|35=A|34=1|49=ORP_RESZ_B|52=20190521-12:08:23.000|56=BLPORPBETA|98=0|108=30|141=Y|1137=FIX50SP2|10=190|
20190521-12:08:33.000000000 : 8=FIXT.1.1|9=95|35=A|34=1|49=ORP_RESZ_B|52=20190521-12:08:33.000|56=BLPORPBETA|98=0|108=30|141=Y|1137=FIX50SP2|10=191|
20190521-12:08:43.000000000 : 8=FIXT.1.1|9=95|35=A|34=1|49=ORP_RESZ_B|52=20190521-12:08:43.000|56=BLPORPBETA|98=0|108=30|141=Y|1137=FIX50SP2|10=192|
20190521-12:08:53.000000000 : 8=FIXT.1.1|9=95|35=A|34=1|49=ORP_RESZ_B|52=20190521-12:08:53.000|56=BLPORPBETA|98=0|108=30|141=Y|1137=FIX50SP2|10=193|
20190521-12:09:03.000000000 : 8=FIXT.1.1|9=95|35=A|34=1|49=ORP_RESZ_B|52=20190521-12:09:03.000|56=BLPORPBETA|98=0|108=30|141=Y|1137=FIX50SP2|10=189|
20190521-12:09:13.000000000 : 8=FIXT.1.1|9=95|35=A|34=1|49=ORP_RESZ_B|52=20190521-12:09:13.000|56=BLPORPBETA|98=0|108=30|141=Y|1137=FIX50SP2|10=190|
20190521-12:09:23.000000000 : 8=FIXT.1.1|9=95|35=A|34=1|49=ORP_RESZ_B|52=20190521-12:09:23.000|56=BLPORPBETA|98=0|108=30|141=Y|1137=FIX50SP2|10=191|
20190521-12:09:33.000000000 : 8=FIXT.1.1|9=95|35=A|34=1|49=ORP_RESZ_B|52=20190521-12:09:33.000|56=BLPORPBETA|98=0|108=30|141=Y|1137=FIX50SP2|10=192|
20190521-12:09:43.000000000 : 8=FIXT.1.1|9=95|35=A|34=1|49=ORP_RESZ_B|52=20190521-12:09:43.000|56=BLPORPBETA|98=0|108=30|141=Y|1137=FIX50SP2|10=193|
20190521-12:09:53.000000000 : 8=FIXT.1.1|9=95|35=A|34=1|49=ORP_RESZ_B|52=20190521-12:09:53.000|56=BLPORPBETA|98=0|108=30|141=Y|1137=FIX50SP2|10=194|
20190521-12:10:03.000000000 : 8=FIXT.1.1|9=95|35=A|34=1|49=ORP_RESZ_B|52=20190521-12:10:03.000|56=BLPORPBETA|98=0|108=30|141=Y|1137=FIX50SP2|10=181|
20190521-12:10:13.000000000 : 8=FIXT.1.1|9=95|35=A|34=1|49=ORP_RESZ_B|52=20190521-12:10:13.000|56=BLPORPBETA|98=0|108=30|141=Y|1137=FIX50SP2|10=182|
20190521-12:10:23.000000000 : 8=FIXT.1.1|9=95|35=A|34=1|49=ORP_RESZ_B|52=20190521-12:10:23.000|56=BLPORPBETA|98=0|108=30|141=Y|1137=FIX50SP2|10=183|
20190521-12:10:33.000000000 : 8=FIXT.1.1|9=95|35=A|34=1|49=ORP_RESZ_B|52=20190521-12:10:33.000|56=BLPORPBETA|98=0|108=30|141=Y|1137=FIX50SP2|10=184|
20190521-12:10:43.000000000 : 8=FIXT.1.1|9=95|35=A|34=1|49=ORP_RESZ_B|52=20190521-12:10:43.000|56=BLPORPBETA|98=0|108=30|141=Y|1137=FIX50SP2|10=185|
20190521-12:10:53.000000000 : 8=FIXT.1.1|9=95|35=A|34=1|49=ORP_RESZ_B|52=20190521-12:10:53.000|56=BLPORPBETA|98=0|108=30|141=Y|1137=FIX50SP2|10=186|
20190521-12:11:03.000000000 : 8=FIXT.1.1|9=95|35=A|34=1|49=ORP_RESZ_B|52=20190521-12:11:03.000|56=BLPORPBETA|98=0|108=30|141=Y|1137=FIX50SP2|10=182|
20190521-12:11:13.000000000 : 8=FIXT.1.1|9=95|35=A|34=1|49=ORP_RESZ_B|52=20190521-12:11:13.000|56=BLPORPBETA|98=0|108=30|141=Y|1137=FIX50SP2|10=183|
20190521-12:11:23.000000000 : 8=FIXT.1.1|9=95|35=A|34=1|49=ORP_RESZ_B|52=20190521-12:11:23.000|56=BLPORPBETA|98=0|108=30|141=Y|1137=FIX50SP2|10=184|
20190521-12:11:33.000000000 : 8=FIXT.1.1|9=95|35=A|34=1|49=ORP_RESZ_B|52=20190521-12:11:33.000|56=BLPORPBETA|98=0|108=30|141=Y|1137=FIX50SP2|10=185|
20190521-12:11:43.000000000 : 8=FIXT.1.1|9=95|35=A|34=1|49=ORP_RESZ_B|52=20190521-12:11:43.000|56=BLPORPBETA|98=0|108=30|141=Y|1137=FIX50SP2|10=186|
20190521-12:11:53.000000000 : 8=FIXT.1.1|9=95|35=A|34=1|49=ORP_RESZ_B|52=20190521-12:11:53.000|56=BLPORPBETA|98=0|108=30|141=Y|1137=FIX50SP2|10=187|
20190521-12:12:03.000000000 : 8=FIXT.1.1|9=95|35=A|34=1|49=ORP_RESZ_B|52=20190521-12:12:03.000|56=BLPORPBETA|98=0|108=30|141=Y|1137=FIX50SP2|10=183|
20190521-12:12:13.000000000 : 8=FIXT.1.1|9=95|35=A|34=1|49=ORP_RESZ_B|52=20190521-12:12:13.000|56=BLPORPBETA|98=0|108=30|141=Y|1137=FIX50SP2|10=184|
20190521-12:12:23.000000000 : 8=FIXT.1.1|9=95|35=A|34=1|49=ORP_RESZ_B|52=20190521-12:12:23.000|56=BLPORPBETA|98=0|108=30|141=Y|1137=FIX50SP2|10=185|
20190521-12:12:33.000000000 : 8=FIXT.1.1|9=95|35=A|34=1|49=ORP_RESZ_B|52=20190521-12:12:33.000|56=BLPORPBETA|98=0|108=30|141=Y|1137=FIX50SP2|10=186|
20190521-12:12:43.000000000 : 8=FIXT.1.1|9=95|35=A|34=1|49=ORP_RESZ_B|52=20190521-12:12:43.000|56=BLPORPBETA|98=0|108=30|141=Y|1137=FIX50SP2|10=187|
20190521-12:12:53.000000000 : 8=FIXT.1.1|9=95|35=A|34=1|49=ORP_RESZ_B|52=20190521-12:12:53.000|56=BLPORPBETA|98=0|108=30|141=Y|1137=FIX50SP2|10=188|
20190521-12:13:03.000000000 : 8=FIXT.1.1|9=95|35=A|34=1|49=ORP_RESZ_B|52=20190521-12:13:03.000|56=BLPORPBETA|98=0|108=30|141=Y|1137=FIX50SP2|10=184|
20190521-12:13:13.000000000 : 8=FIXT.1.1|9=95|35=A|34=1|49=ORP_RESZ_B|52=20190521-12:13:13.000|56=BLPORPBETA|98=0|108=30|141=Y|1137=FIX50SP2|10=185|
20190521-12:13:23.000000000 : 8=FIXT.1.1|9=95|35=A|34=1|49=ORP_RESZ_B|52=20190521-12:13:23.000|56=BLPORPBETA|98=0|108=30|141=Y|1137=FIX50SP2|10=186|
20190521-12:13:33.000000000 : 8=FIXT.1.1|9=95|35=A|34=1|49=ORP_RESZ_B|52=20190521-12:13:33.000|56=BLPORPBETA|98=0|108=30|141=Y|1137=FIX50SP2|10=187|
20190521-12:13:43.000000000 : 8=FIXT.1.1|9=95|35=A|34=1|49=ORP_RESZ_B|52=20190521-12:13:43.000|56=BLPORPBETA|98=0|108=30|141=Y|1137=FIX50SP2|10=188|
20190521-12:13:53.000000000 : 8=FIXT.1.1|9=95|35=A|34=1|49=ORP_RESZ_B|52=20190521-12:13:53.000|56=BLPORPBETA|98=0|108=30|141=Y|1137=FIX50SP2|10=189|
20190521-12:14:03.000000000 : 8=FIXT.1.1|9=95|35=A|34=1|49=ORP_RESZ_B|52=20190521-12:14:03.000|56=BLPORPBETA|98=0|108=30|141=Y|1137=FIX50SP2|10=185|
20190521-12:14:13.000000000 : 8=FIXT.1.1|9=95|35=A|34=1|49=ORP_RESZ_B|52=20190521-12:14:13.000|56=BLPORPBETA|98=0|108=30|141=Y|1137=FIX50SP2|10=186|
20190521-12:14:23.000000000 : 8=FIXT.1.1|9=95|35=A|34=1|49=ORP_RESZ_B|52=20190521-12:14:23.000|56=BLPORPBETA|98=0|108=30|141=Y|1137=FIX50SP2|10=187|
20190521-12:14:33.000000000 : 8=FIXT.1.1|9=95|35=A|34=1|49=ORP_RESZ_B|52=20190521-12:14:33.000|56=BLPORPBETA|98=0|108=30|141=Y|1137=FIX50SP2|10=188|
20190521-12:14:43.000000000 : 8=FIXT.1.1|9=95|35=A|34=1|49=ORP_RESZ_B|52=20190521-12:14:43.000|56=BLPORPBETA|98=0|108=30|141=Y|1137=FIX50SP2|10=189|
20190521-12:14:53.000000000 : 8=FIXT.1.1|9=95|35=A|34=1|49=ORP_RESZ_B|52=20190521-12:14:53.000|56=BLPORPBETA|98=0|108=30|141=Y|1137=FIX50SP2|10=190|
20190521-12:15:03.000000000 : 8=FIXT.1.1|9=95|35=A|34=1|49=ORP_RESZ_B|52=20190521-12:15:03.000|56=BLPORPBETA|98=0|108=30|141=Y|1137=FIX50SP2|10=186|
20190521-12:15:13.000000000 : 8=FIXT.1.1|9=95|35=A|34=1|49=ORP_RESZ_B|52=20190521-12:15:13.000|56=BLPORPBETA|98=0|108=30|141=Y|1137=FIX50SP2|10=187|
20190521-12:15:23.000000000 : 8=FIXT.1.1|9=95|35=A|34=1|49=ORP_RESZ_B|52=20190521-12:15:23.000|56=BLPORPBETA|98=0|108=30|141=Y|1137=FIX50SP2|10=188|
20190521-12:15:33.000000000 : 8=FIXT.1.1|9=95|35=A|34=1|49=ORP_RESZ_B|52=20190521-12:15:33.000|56=BLPORPBETA|98=0|108=30|141=Y|1137=FIX50SP2|10=189|
20190521-12:15:43.000000000 : 8=FIXT.1.1|9=95|35=A|34=1|49=ORP_RESZ_B|52=20190521-12:15:43.000|56=BLPORPBETA|98=0|108=30|141=Y|1137=FIX50SP2|10=190|
20190521-12:15:53.000000000 : 8=FIXT.1.1|9=95|35=A|34=1|49=ORP_RESZ_B|52=20190521-12:15:53.000|56=BLPORPBETA|98=0|108=30|141=Y|1137=FIX50SP2|10=191|
20190521-12:16:03.000000000 : 8=FIXT.1.1|9=95|35=A|34=1|49=ORP_RESZ_B|52=20190521-12:16:03.000|56=BLPORPBETA|98=0|108=30|141=Y|1137=FIX50SP2|10=187|
20190521-12:16:13.000000000 : 8=FIXT.1.1|9=95|35=A|34=1|49=ORP_RESZ_B|52=20190521-12:16:13.000|56=BLPORPBETA|98=0|108=30|141=Y|1137=FIX50SP2|10=188|
20190521-12:16:23.000000000 : 8=FIXT.1.1|9=95|35=A|34=1|49=ORP_RESZ_B|52=20190521-12:16:23.000|56=BLPORPBETA|98=0|108=30|141=Y|1137=FIX50SP2|10=189|
20190521-12:16:33.000000000 : 8=FIXT.1.1|9=95|35=A|34=1|49=ORP_RESZ_B|52=20190521-12:16:33.000|56=BLPORPBETA|98=0|108=30|141=Y|1137=FIX50SP2|10=190|
20190521-12:16:43.000000000 : 8=FIXT.1.1|9=95|35=A|34=1|49=ORP_RESZ_B|52=20190521-12:16:43.000|56=BLPORPBETA|98=0|108=30|141=Y|1137=FIX50SP2|10=191|
20190521-12:16:53.000000000 : 8=FIXT.1.1|9=95|35=A|34=1|49=ORP_RESZ_B|52=20190521-12:16:53.000|56=BLPORPBETA|98=0|108=30|141=Y|1137=FIX50SP2|10=192|
20190521-12:17:03.000000000 : 8=FIXT.1.1|9=95|35=A|34=1|49=ORP_RESZ_B|52=20190521-12:17:03.000|56=BLPORPBETA|98=0|108=30|141=Y|1137=FIX50SP2|10=188|
20190521-12:17:13.000000000 : 8=FIXT.1.1|9=95|35=A|34=1|49=ORP_RESZ_B|52=20190521-12:17:13.000|56=BLPORPBETA|98=0|108=30|141=Y|1137=FIX50SP2|10=189|
20190521-12:17:23.000000000 : 8=FIXT.1.1|9=95|35=A|34=1|49=ORP_RESZ_B|52=20190521-12:17:23.000|56=BLPORPBETA|98=0|108=30|141=Y|1137=FIX50SP2|10=190|
20190521-12:17:33.000000000 : 8=FIXT.1.1|9=95|35=A|34=1|49=ORP_RESZ_B|52=20190521-12:17:33.000|56=BLPORPBETA|98=0|108=30|141=Y|1137=FIX50SP2|10=191|
20190521-12:17:43.000000000 : 8=FIXT.1.1|9=95|35=A|34=1|49=ORP_RESZ_B|52=20190521-12:17:43.000|56=BLPORPBETA|98=0|108=30|141=Y|1137=FIX50SP2|10=192|
20190521-12:17:53.000000000 : 8=FIXT.1.1|9=95|35=A|34=1|49=ORP_RESZ_B|52=20190521-12:17:53.000|56=BLPORPBETA|98=0|108=30|141=Y|1137=FIX50SP2|10=193|
20190521-12:18:03.000000000 : 8=FIXT.1.1|9=95|35=A|34=1|49=ORP_RESZ_B|52=20190521-12:18:03.000|56=BLPORPBETA|98=0|108=30|141=Y|1137=FIX50SP2|10=189|
20190521-12:18:13.000000000 : 8=FIXT.1.1|9=95|35=A|34=1|49=ORP_RESZ_B|52=20190521-12:18:13.000|56=BLPORPBETA|98=0|108=30|141=Y|1137=FIX50SP2|10=190|
20190521-12:18:23.000000000 : 8=FIXT.1.1|9=95|35=A|34=1|49=ORP_RESZ_B|52=20190521-12:18:23.000|56=BLPORPBETA|98=0|108=30|141=Y|1137=FIX50SP2|10=191|
20190521-12:18:33.000000000 : 8=FIXT.1.1|9=95|35=A|34=1|49=ORP_RESZ_B|52=20190521-12:18:33.000|56=BLPORPBETA|98=0|108=30|141=Y|1137=FIX50SP2|10=192|
20190521-12:18:43.000000000 : 8=FIXT.1.1|9=95|35=A|34=1|49=ORP_RESZ_B|52=20190521-12:18:43.000|56=BLPORPBETA|98=0|108=30|141=Y|1137=FIX50SP2|10=193|
20190521-12:18:53.000000000 : 8=FIXT.1.1|9=95|35=A|34=1|49=ORP_RESZ_B|52=20190521-12:18:53.000|56=BLPORPBETA|98=0|108=30|141=Y|1137=FIX50SP2|10=194|
20190521-12:19:03.000000000 : 8=FIXT.1.1|9=95|35=A|34=1|49=ORP_RESZ_B|52=20190521-12:19:03.000|56=BLPORPBETA|98=0|108=30|141=Y|1137=FIX50SP2|10=190|
20190521-12:19:13.000000000 : 8=FIXT.1.1|9=95|35=A|34=1|49=ORP_RESZ_B|52=20190521-12:19:13.000|56=BLPORPBETA|98=0|108=30|141=Y|1137=FIX50SP2|10=191|
20190521-12:19:23.000000000 : 8=FIXT.1.1|9=95|35=A|34=1|49=ORP_RESZ_B|52=20190521-12:19:23.000|56=BLPORPBETA|98=0|108=30|141=Y|1137=FIX50SP2|10=192|
20190521-12:19:33.000000000 : 8=FIXT.1.1|9=95|35=A|34=1|49=ORP_RESZ_B|52=20190521-12:19:33.000|56=BLPORPBETA|98=0|108=30|141=Y|1137=FIX50SP2|10=193|
20190521-12:19:43.000000000 : 8=FIXT.1.1|9=95|35=A|34=1|49=ORP_RESZ_B|52=20190521-12:19:43.000|56=BLPORPBETA|98=0|108=30|141=Y|1137=FIX50SP2|10=194|
20190521-12:19:53.000000000 : 8=FIXT.1.1|9=95|35=A|34=1|49=ORP_RESZ_B|52=20190521-12:19:53.000|56=BLPORPBETA|98=0|108=30|141=Y|1137=FIX50SP2|10=195|
20190521-12:20:03.000000000 : 8=FIXT.1.1|9=95|35=A|34=1|49=ORP_RESZ_B|52=20190521-12:20:03.000|56=BLPORPBETA|98=0|108=30|141=Y|1137=FIX50SP2|10=182|
20190521-12:20:13.000000000 : 8=FIXT.1.1|9=95|35=A|34=1|49=ORP_RESZ_B|52=20190521-12:20:13.000|56=BLPORPBETA|98=0|108=30|141=Y|1137=FIX50SP2|10=183|
20190521-12:20:23.000000000 : 8=FIXT.1.1|9=95|35=A|34=1|49=ORP_RESZ_B|52=20190521-12:20:23.000|56=BLPORPBETA|98=0|108=30|141=Y|1137=FIX50SP2|10=184|
20190521-12:20:33.000000000 : 8=FIXT.1.1|9=95|35=A|34=1|49=ORP_RESZ_B|52=20190521-12:20:33.000|56=BLPORPBETA|98=0|108=30|141=Y|1137=FIX50SP2|10=185|
20190521-12:20:43.000000000 : 8=FIXT.1.1|9=95|35=A|34=1|49=ORP_RESZ_B|52=20190521-12:20:43.000|56=BLPORPBETA|98=0|108=30|141=Y|1137=FIX50SP2|10=186|
20190521-12:20:53.000000000 : 8=FIXT.1.1|9=95|35=A|34=1|49=ORP_RESZ_B|52=20190521-12:20:53.000|56=BLPORPBETA|98=0|108=30|141=Y|1137=FIX50SP2|10=187|
20190521-12:21:03.000000000 : 8=FIXT.1.1|9=95|35=A|34=1|49=ORP_RESZ_B|52=20190521-12:21:03.000|56=BLPORPBETA|98=0|108=30|141=Y|1137=FIX50SP2|10=183|
20190521-12:21:13.000000000 : 8=FIXT.1.1|9=95|35=A|34=1|49=ORP_RESZ_B|52=20190521-12:21:13.000|56=BLPORPBETA|98=0|108=30|141=Y|1137=FIX50SP2|10=184|
20190521-12:21:23.000000000 : 8=FIXT.1.1|9=95|35=A|34=1|49=ORP_RESZ_B|52=20190521-12:21:23.000|56=BLPORPBETA|98=0|108=30|141=Y|1137=FIX50SP2|10=185|
20190521-12:21:33.000000000 : 8=FIXT.1.1|9=95|35=A|34=1|49=ORP_RESZ_B|52=20190521-12:21:33.000|56=BLPORPBETA|98=0|108=30|141=Y|1137=FIX50SP2|10=186|
20190521-12:21:43.000000000 : 8=FIXT.1.1|9=95|35=A|34=1|49=ORP_RESZ_B|52=20190521-12:21:43.000|56=BLPORPBETA|98=0|108=30|141=Y|1137=FIX50SP2|10=187|
20190521-12:21:53.000000000 : 8=FIXT.1.1|9=95|35=A|34=1|49=ORP_RESZ_B|52=20190521-12:21:53.000|56=BLPORPBETA|98=0|108=30|141=Y|1137=FIX50SP2|10=188|
20190521-12:22:03.000000000 : 8=FIXT.1.1|9=95|35=A|34=1|49=ORP_RESZ_B|52=20190521-12:22:03.000|56=BLPORPBETA|98=0|108=30|141=Y|1137=FIX50SP2|10=184|
20190521-12:22:13.000000000 : 8=FIXT.1.1|9=95|35=A|34=1|49=ORP_RESZ_B|52=20190521-12:22:13.000|56=BLPORPBETA|98=0|108=30|141=Y|1137=FIX50SP2|10=185|
20190521-12:22:23.000000000 : 8=FIXT.1.1|9=95|35=A|34=1|49=ORP_RESZ_B|52=20190521-12:22:23.000|56=BLPORPBETA|98=0|108=30|141=Y|1137=FIX50SP2|10=186|
20190521-12:22:33.000000000 : 8=FIXT.1.1|9=95|35=A|34=1|49=ORP_RESZ_B|52=20190521-12:22:33.000|56=BLPORPBETA|98=0|108=30|141=Y|1137=FIX50SP2|10=187|
20190521-12:22:43.000000000 : 8=FIXT.1.1|9=95|35=A|34=1|49=ORP_RESZ_B|52=20190521-12:22:43.000|56=BLPORPBETA|98=0|108=30|141=Y|1137=FIX50SP2|10=188|
20190521-12:22:53.000000000 : 8=FIXT.1.1|9=95|35=A|34=1|49=ORP_RESZ_B|52=20190521-12:22:53.000|56=BLPORPBETA|98=0|108=30|141=Y|1137=FIX50SP2|10=189|
20190521-12:23:03.000000000 : 8=FIXT.1.1|9=95|35=A|34=1|49=ORP_RESZ_B|52=20190521-12:23:03.000|56=BLPORPBETA|98=0|108=30|141=Y|1137=FIX50SP2|10=185|
20190521-12:23:13.000000000 : 8=FIXT.1.1|9=95|35=A|34=1|49=ORP_RESZ_B|52=20190521-12:23:13.000|56=BLPORPBETA|98=0|108=30|141=Y|1137=FIX50SP2|10=186|
20190521-12:23:23.000000000 : 8=FIXT.1.1|9=95|35=A|34=1|49=ORP_RESZ_B|52=20190521-12:23:23.000|56=BLPORPBETA|98=0|108=30|141=Y|1137=FIX50SP2|10=187|
20190521-12:23:33.000000000 : 8=FIXT.1.1|9=95|35=A|34=1|49=ORP_RESZ_B|52=20190521-12:23:33.000|56=BLPORPBETA|98=0|108=30|141=Y|1137=FIX50SP2|10=188|
20190521-12:23:43.000000000 : 8=FIXT.1.1|9=95|35=A|34=1|49=ORP_RESZ_B|52=20190521-12:23:43.000|56=BLPORPBETA|98=0|108=30|141=Y|1137=FIX50SP2|10=189|
20190521-12:23:53.000000000 : 8=FIXT.1.1|9=95|35=A|34=1|49=ORP_RESZ_B|52=20190521-12:23:53.000|56=BLPORPBETA|98=0|108=30|141=Y|1137=FIX50SP2|10=190|
20190521-12:24:03.000000000 : 8=FIXT.1.1|9=95|35=A|34=1|49=ORP_RESZ_B|52=20190521-12:24:03.000|56=BLPORPBETA|98=0|108=30|141=Y|1137=FIX50SP2|10=186|
20190521-12:24:13.000000000 : 8=FIXT.1.1|9=95|35=A|34=1|49=ORP_RESZ_B|52=20190521-12:24:13.000|56=BLPORPBETA|98=0|108=30|141=Y|1137=FIX50SP2|10=187|
20190521-12:24:23.000000000 : 8=FIXT.1.1|9=95|35=A|34=1|49=ORP_RESZ_B|52=20190521-12:24:23.000|56=BLPORPBETA|98=0|108=30|141=Y|1137=FIX50SP2|10=188|
20190521-12:24:33.000000000 : 8=FIXT.1.1|9=95|35=A|34=1|49=ORP_RESZ_B|52=20190521-12:24:33.000|56=BLPORPBETA|98=0|108=30|141=Y|1137=FIX50SP2|10=189|
20190521-12:24:43.000000000 : 8=FIXT.1.1|9=95|35=A|34=1|49=ORP_RESZ_B|52=20190521-12:24:43.000|56=BLPORPBETA|98=0|108=30|141=Y|1137=FIX50SP2|10=190|
20190521-12:24:53.000000000 : 8=FIXT.1.1|9=95|35=A|34=1|49=ORP_RESZ_B|52=20190521-12:24:53.000|56=BLPORPBETA|98=0|108=30|141=Y|1137=FIX50SP2|10=191|
20190521-12:25:03.000000000 : 8=FIXT.1.1|9=95|35=A|34=1|49=ORP_RESZ_B|52=20190521-12:25:03.000|56=BLPORPBETA|98=0|108=30|141=Y|1137=FIX50SP2|10=187|
20190521-12:25:13.000000000 : 8=FIXT.1.1|9=95|35=A|34=1|49=ORP_RESZ_B|52=20190521-12:25:13.000|56=BLPORPBETA|98=0|108=30|141=Y|1137=FIX50SP2|10=188|
20190521-12:25:23.000000000 : 8=FIXT.1.1|9=95|35=A|34=1|49=ORP_RESZ_B|52=20190521-12:25:23.000|56=BLPORPBETA|98=0|108=30|141=Y|1137=FIX50SP2|10=189|
20190521-12:25:33.000000000 : 8=FIXT.1.1|9=95|35=A|34=1|49=ORP_RESZ_B|52=20190521-12:25:33.000|56=BLPORPBETA|98=0|108=30|141=Y|1137=FIX50SP2|10=190|
